:020000040800F2
:10000000C03A0020DD010008BF260008FD200008DE
:10001000BD260008150300088949000800000000FB
:100020000000000000000000000000004501000882
:100030003103000800000000890100084D3100086C
:10004000F7010008F7010008F7010008F7010008B0
:10005000F7010008F7010008F7010008F7010008A0
:10006000F70100083303000839030008F70100080E
:100070001903000825030008F7010008F70100082C
:10008000F7010008F7010008F7010008F701000870
:10009000E5480008F7010008F7010008F70100082B
:1000A000F7010008F7010008F7010008F701000850
:1000B000F7010008F7010008F7010008F701000840
:1000C000F7010008F7010008F7010008F701000830
:1000D000F7010008F7010008F7010008F701000820
:1000E000F7010008F7010008F7010008F701000810
:1000F000F7010008F7010008F7010008F701000800
:10010000F7010008F7010008F7010008F7010008EF
:10011000F7010008F7010008F7010008F7010008DF
:10012000F7010008F7010008F7010008F7010008CF
:10013000DFF80CD000F088F800480047F74A0008C4
:10014000C03A0020224B19680868B0E8F00F80F32D
:100150000988BFF36F8F4FF0000080F311884EF0D5
:100160000D0E70470000000006480068006880F32C
:10017000088862B661B6BFF34F8FBFF36F8F00DFA1
:1001800000BF00BF08ED00E0EFF30980BFF36F8F01
:100190000F4B1A6820E9F00F106008B54FF05000BF
:1001A00080F31188BFF34F8FBFF36F8F05F012F903
:1001B0004FF0000080F31188BDE808401968086816
:1001C000B0E8F00F80F30988BFF36F8F704700BF6E
:1001D00018000020EFF305807047000006488047B4
:1001E00006480047FEE7FEE7FEE7FEE7FEE7FEE71C
:1001F000FEE7FEE7FEE7FEE7DD310008310100081B
:1002000040EA01039B0703D009E008C9121F08C098
:10021000042AFAD203E011F8013B00F8013B521E18
:10022000F9D27047D2B201E000F8012B491EFBD28F
:1002300070470022F6E710B513460A4604461946F1
:10024000FFF7F0FF204610BD064C074D06E0E068C2
:1002500040F0010394E8070098471034AC42F6D30D
:10026000FFF76AFF5C5C00087C5C000870B58C18C6
:1002700010F8015B15F0070301D110F8013B2A11BA
:1002800006D110F8012B03E010F8016B01F8016BA7
:100290005B1EF9D12B0705D40023521E0DD401F8A3
:1002A000013BFAE710F8013BCB1A921C03E013F86C
:1002B000015B01F8015B521EF9D5A142D8D30020A1
:1002C00070BD000038B520218DF80010010C8DF8AC
:1002D0000110010A8DF802108DF8030004F0CEFB26
:1002E0000A4D4FF4805400222146284600F0D4FAEB
:1002F00041F2883304226946054801F0DEFC012200
:100300002146284600F0C8FA38BD0000000C014024
:1003100080040020FEE70000014800F035B800002E
:100320001C050020014800F02FB80000D804002070
:100330007047082000F0A8B9102000F0A5B972B6E7
:10034000FEE70022AFF3008030B50E4B05460120DA
:100350005C7A012C15D8587A00241C54587A03EB87
:10036000800045605D7A03F108002A54587A421CE7
:100370005A72303008703A2048702F208870CC7044
:10038000002030BDB42A00202DE9F05FC16B0A685F
:1003900001680B68046C4FF0040808FA04F8844DF7
:1003A000844E854FDFF814C2DFF81492DFF814A2F0
:1003B000DFF814B2DFF814E218EA020F65D05FEA42
:1003C000437862D50A68920603D40A6822F00402D0
:1003D0000A60DFF8F0814FF48062016808F11408C8
:1003E00013011402414524D9A9420DD0B1420FD0C6
:1003F000B9421AD0614515D0494515D0514501D1B2
:10040000120312E0594501D104220EE0714501D1D9
:1004100040220AE06D4D1435A94206D06B4A2832BD
:10042000914201D11A4600E022466749091F0A603D
:1004300029E0A94213D0B14215D0B94220D061457C
:100440001BD049451BD0514502D14FF4800217E023
:10045000414502D14FF0806212E0594501D104229A
:100460000EE0714501D140220AE0584D1435A942F1
:1004700006D0564A2832914201D11A4600E022465F
:100480004B4908394A60C16A71E04FF0020808FA26
:1004900004F818EA020F70D05FEA83786DD50A6815
:1004A000920606D40A6822F00A020A60012180F846
:1004B0002110DFF810814FF40072016808F1140870
:1004C00013011402414524D9A9420DD0B1420FD0E5
:1004D000B9421AD0614515D0494515D0514501D1D1
:1004E000120312E0594501D102220EE0714501D1FB
:1004F00020220AE0354D1435A94206D0334A28326D
:10050000914201D11A4600E022462F49091F0A6094
:1005100029E0A94213D0B14215D0B94220D061459B
:100520001BD049451BD0514502D14FF4001217E0B2
:10053000414502D14FF0007212E0594501D102222B
:100540000EE0714501D120220AE0204D1435A94268
:1005500006D01E4A2832914201D11A4600E02246B6
:10056000134908394A60002180F82010816A002967
:100570001CD0BDE8F05F0847FFE70825A5401542FD
:1005800014D01A0712D50A6822F00E020A6090F8F9
:100590004020C36B012101FA02F25A60816380F8A6
:1005A0002110002180F82010016BE0E7BDE8F09FEA
:1005B000080002401C00024030000240440002409B
:1005C000580002406C000240080402401C04024033
:1005D00030B560B11A4B026814219A4209D2194B06
:1005E0001344B3FBF1F18900016417490AE00120CB
:1005F00030BD134B5B421344B3FBF1F1890001643E
:100600000F490839C163022180F82110136843F6AD
:10061000F0718B43F0E901142143D0E902452C43EA
:1006200021430469214344692143846921431943D7
:10063000116000214163012242770177084630BDF5
:1006400008040240F8FFFDBF0000024070B50446F8
:1006500000F028F90546601C02D0044800780444E4
:1006600000F020F9401BA042FAD370BD0800002022
:10067000044A00210828116003D11146506805F092
:1006800065B8704778000020044910B50A68024236
:1006900002D00860FFF7ECFF10BD00001404014019
:1006A0002DE9F84FDFF8C891002409F1040A0AF196
:1006B000040B23460F270BF1040ED1E00125A540C2
:1006C00006EA0502AA4276D1DFF8A8C14E68A6EB79
:1006D0000C0866452BD00DDC032E34D005DC36B378
:1006E000012E19D0022E2FD11BE0112E16D0122E62
:1006F0002AD119E0B8F5881F19D006DCB8F5803F7B
:1007000015D0B8F5801F1FD111E0B8F5001F0ED02D
:10071000B8F5041F18D10AE0CB6815E0CB681B1DA3
:1007200012E0CB6808330FE0CB680C330CE08B6829
:100730002BB1012B4FF0080303D0456104E00423E3
:1007400002E0056100E00023FF2A01D8064601E02F
:1007500000F104064FEA840501D9A5F12005D6F879
:10076000008007FA05FC28EA0C0803FA05F548EAB8
:100770000508C6F800804D68ED0070D53E4DAE69A5
:1007800046F00106AE61AD6924F0030605F00105EF
:1007900000953A4D06EB050CDCF80850A607360F1D
:1007A00007FA06F825EA0805DFF8D480404503D1AA
:1007B0004FF0000825E052E0DFF8C880404502D144
:1007C0004FF001081DE0DFF8C080404502D14FF036
:1007D000020816E0DFF8B480404502D14FF003086C
:1007E0000FE0DFF8AC80404502D14FF0040808E08C
:1007F000DFF8A080404502D14FF0050801E04FF03E
:10080000060808FA06F848EA0508CCF808804D689A
:10081000D9F80060ED034D4601D5164300E096433C
:100820002E604D68DAF80060AD03554601D51643D9
:1008300000E096432E604D68DBF80060ED025D46F7
:1008400001D5164300E096432E604D68DEF8006047
:10085000AD02754601D5164300E096432E60641C38
:100860000A681646E2407FF429AFBDE8F88F000021
:10087000000401400000111000100240000001407F
:1008800000080140000C014000100140001401402C
:1008900000180140001C01400AB1016170470904C1
:1008A000FBE7000001488068704700000800002056
:1008B0000248816802781144816070470800002076
:1008C000074810B5016841F010010160032000F0F5
:1008D0007BF80F2000F006F800F024F8002010BD8F
:1008E0000020024070B50D4D04464FF47A7128780F
:1008F000B1FBF0F00A490968B1FBF0F001F081FBAF
:1009000048B9102C07D200222146501E00F03CF8B6
:1009100000206C6070BD012070BD00000800002048
:10092000140000200F4808B5816941F00101816180
:10093000816901F001010091C16941F08051C161FB
:10094000C069002200F0805000900F21901E00F03E
:100950001BF80548416821F0E06141F000714160F9
:1009600008BD00000010024000000140002809DB23
:1009700000F01F02012191404009800000F1E020B9
:10098000C0F8001170470000F0B40E4B1B680C4615
:10099000C3F30223C3F10705042D00D90425191D53
:1009A000072901D2002300E0DB1E012606FA05F12B
:1009B000491E214099409E40761E16403143F0BCAE
:1009C00004F07AB80CED00E0064900F00702086870
:1009D0004FF6FF03184040EA0220034A1043086024
:1009E000704700000CED00E00000FA0510B50C06A1
:1009F00007D501F0070101EB810100EBC1002830B0
:100A000005E001EB810100EBC10000F5B47099B283
:100A100032B1012202730181190C4181002010BD05
:100A200000220273C180F9E7704701EB810200EBFD
:100A3000C202D0F8E802D26B02F0B1BD01EB810234
:100A400000EBC202D0F8E802D2F87C2102F00ABE24
:100A500070B504460B0601F0070000EB800104EBC3
:100A6000C1014FF001024FF0000503D581F82920A4
:100A7000283103E081F8695101F5B471087094F8E8
:100A8000A802012808D084F8A822206803F024FBDB
:100A900084F8A852002070BD022070BD70B50446D5
:100AA00001F00F006268904201D9012070BD0B0671
:100AB00001F0070000EB800104EBC1014FF00102DF
:100AC0004FF0000503D581F82920283103E081F893
:100AD000695101F5B4718D70087094F8A80201286D
:100AE00008D084F8A822206803F093FB84F8A85269
:100AF000002070BD022070BD2DE9F05F04685FEA40
:100B0000424C0B788D69B4F850C04FF000064BF69C
:100B10008F7948F2800A48F68F7B48F2C00E4FF476
:100B200080672AD54FF0020808EBC308C44407EBDE
:100B30004C07E45BC4F30904A54203D32D1B8D616C
:100B400001D00BE08E61066836F8235005EA0905EE
:100B500085F4005545EA0A0526F82350520609D5C2
:100B60000D78036833F8252002EA0B0242EA0E02F0
:100B700023F8252084B30A8929E04FF0060808EB02
:100B8000C308C44407EB4C07E45BC4F30904A54263
:100B900003D32D1B8D6101D00BE08E61066836F802
:100BA000235005EA090585F4005545EA0A0526F8AB
:100BB0002350520609D40B78056835F8232002EA41
:100BC0000B0242EA0E0225F823202CB14A8949691A
:100BD0000068234603F090FE2046BDE8F09F2DE913
:100BE000F05F054600680C465FEA426C16468B696A
:100BF0002278B0F850C048F68F774CF280094FF653
:100C0000FF7B4FF4004E4FF4806A4FF000017BD51C
:100C10004FF0020808EBC208E0440AEB480C30F839
:100C20000C00C0F30900834211D91B1AA3610FD035
:100C3000730407D52E6836F822303B4043EA090397
:100C400026F8223094F82420012A50D04EE1A161E8
:100C5000607810B1012813D01AE02868B0F850303D
:100C6000184400EB0210B0F8042422F4F842A0F873
:100C70000424B0F8042442F40042A0F8042407E05D
:100C80002868B0F85030184400EB0210A0F80414A3
:100C90006278286812B1012A11D018E0B0F850101B
:100CA0000844217800EB0110B0F80C1421F4F8414D
:100CB000A0F80C14B0F80C1441F4004105E0B0F8B1
:100CC00050201044227800EB0210A0F80C14217878
:100CD0002846FFF7AAFE7004B8D521782A6832F8B2
:100CE0002100384040EA090022F82100FEE0626954
:100CF00002446261E2690244E2612369226A9A4223
:100D000003D31846111A04E038E084F824100AB11D
:100D100010462162617811B1012923D02BE02968A6
:100D2000B1F850201144227801EB021101F2044184
:100D300048B13E280FD84208C30700D0521C0BEA26
:100D400082220A8017E00A8822F4F8420A800A8880
:100D500042F40042F5E74209C30600D1521E4EEAB2
:100D60008222EEE72968B1F850201144227801EB85
:100D70000211A1F8040483B22289B3E04FF00608FF
:100D800008EBC208E0440AEB480C30F80C00C0F352
:100D90000900834211D31B1AA3610FD0730407D437
:100DA0002E6836F822303B4043EA090326F8223009
:100DB00094F82420012A50D098E0A161607810B105
:100DC000012813D01AE02868B0F85030184400EB1E
:100DD0000210B0F8042422F4F842A0F80424B0F879
:100DE000042442F40042A0F8042407E02868B0F884
:100DF0005030184400EB0210A0F804146278286800
:100E000012B1012A11D018E0B0F85010084421782E
:100E100000EB0110B0F80C1421F4F841A0F80C1408
:100E2000B0F80C1441F4004105E0B0F85020104433
:100E3000227800EB0210A0F80C1421782846FFF766
:100E4000F4FD700452D42278296831F82200384029
:100E500040EA090021F8220048E062690244626128
:100E6000E2690244E2612369226A9A4203D3184686
:100E7000111A216204E00AB11046216284F824109C
:100E80006278296812B1012A22D029E0B1F85020F5
:100E90001144227801EB021101F20C4148B13E28C5
:100EA0000FD84208C30700D0521C0BEA82220A80E6
:100EB00016E00A8822F4F8420A800A8842F40042C6
:100EC000F5E74209C30600D1521E4EEA8222EEE740
:100ED000B1F850201144227801EB0211A1F80C0462
:100EE000628983B26169286803F024FD21782A6849
:100EF00032F8210048F6BF73184080F0300048F205
:100F00008003184322F821000020BDE8F09F10B5AF
:100F1000044690F8A80201280AD0012084F8A8020B
:100F2000080607D501F00701206803F0D8FC04E0AB
:100F3000022010BD206803F0D0FC002084F8A80235
:100F400010BD01F0070101EB810100EBC100D0F8F9
:100F5000840170472DE9F04104460F0601F00700B7
:100F600000EB800104EBC1014FF001064FF00005DA
:100F700003D581F82960283103E081F8695101F532
:100F8000B47108700A61CB704A7802B1C881022B33
:100F900000D10D7194F8A802012809D084F8A86244
:100FA000206802F06BFF284684F8A852BDE8F08163
:100FB0000220FBE770B50C4601F0070505EB850143
:100FC00000EBC101C1E95F230022C1F8842181F84F
:100FD000692181F8685101F5B4716207006803F076
:100FE0006DF9002070BD70B504460D4601F0070094
:100FF0006168884201D9012070BD29064FF00006C2
:101000004FF0010207D500EB800104EBC10181F82C
:101010002920283107E005EB850104EBC10181F8A7
:10102000696101F5B4718A70087094F8A80201280A
:1010300007D084F8A822206803F027F9680702D0B7
:1010400006E0022070BD04F52C71206803F0DFF883
:1010500084F8A862002070BD70B50C4601F0070549
:1010600005EB850100EBC101C1E90F23012281F8E5
:101070004C208B6400234B6481F8292001F8285F01
:101080006207006803F01AF9002070BD1FB504461E
:10109000006803F02DFC000402D5204601F010FB8F
:1010A000206803F025FC40050CD5206830F8441F6B
:1010B00021F480610180204600F01EF900212046C5
:1010C00000F035F9206803F013FC400405D52068D2
:1010D00030F8441F21F480410180206803F008FCAF
:1010E000800405D5206830F8441F21F400510180A8
:1010F000206803F0FDFBC00414D5206830F8401FC1
:1011000021F004010180206830F8401F21F008011F
:101110000180204600F003F9206830F8441F21F4D4
:1011200080510180206803F0E3FB00053ED5226872
:101130000020694632F8203021F81030401CC0B23F
:101140000828F7D332F8400F40F0010010802068E3
:1011500030F8402F22F0010202802068B0F84420CD
:101160005205FBD530F8442F22F480620280002023
:10117000236831F8102023F82020401CC0B2082832
:10118000F6D3206830F8401F41F008010180206844
:1011900030F8441F21F400610180206830F8401FBE
:1011A00041F004010180204600F0F6F8206803F0C9
:1011B0009FFB800508D5206830F8441F21F400719A
:1011C0000180204600F0AFF8206803F091FBC005D5
:1011D00005D5206830F8441F21F4807101801FBDBF
:1011E0002DE9F04186B0040004D094F8A90200254E
:1011F00020B108E0012006B0BDE8F08184F8A852D3
:10120000204600F05BF8032084F8A902206802F071
:10121000F7FF04F11001142288466846FEF7F0FF3C
:1012200094E80F0002F056FF0226D0BB0021206890
:1012300003F078FB002001270FE000BF00EB8001E6
:1012400004EBC10181F8297001F8280FC881CD7025
:101250000D614D61401CC0B28D6161688142EDD865
:10126000002011E000EB800104EBC10181F869511D
:1012700081F8680181F86B51C1F87851C1F87C514F
:10128000401CC0B2C1F8805161688142EAD8142282
:1012900041466846FEF7B4FF94E80F0002F0A7FF4E
:1012A00010B184F8A962A5E784F8245084F8A972E3
:1012B000206802F09AFF00209DE7000008B5006852
:1012C0000B49884212D10B48C16941F40001C16148
:1012D000C069002200F40000009005211420FFF7EF
:1012E00053FBBDE808401420FFF740BB08BD0000D9
:1012F000005C00400010024070B504468068012583
:10130000022801D0FFF71BF82946D4F8E80202F0C2
:1013100092FAD4F8E802BDE8704002F04EBAD0F874
:10132000E80202F072BAD0F8E80202F078BA10B51A
:10133000044690F8A80201280BD0012084F8A802E6
:1013400084F82410206803F0EFFA002084F8A80243
:1013500010BD022010BDD0F8E82200F52C71104617
:1013600002F075BA10B5044690F8A802012810D012
:10137000012084F8A802206803F0A6FA0121204683
:10138000FFF752FB206802F02EFF002084F8A8022D
:1013900010BD022010BD000010B50446D0F8E802D0
:1013A00002F094FAA069002804D00348016841F0D3
:1013B0000601016010BD000010ED00E02DE9F843CA
:1013C00005460078354CC00754D0E0690026C000BF
:1013D00008D4E06940F08050E061E069012600F047
:1013E000805000902E480168C90512D401688046DB
:1013F00041F480710160FFF755FA074605E000BF30
:10140000FFF750FAC01B642823D8D8F80000C005A5
:10141000F6D5206A10F4407021D0A98801F44071FB
:1014200081421CD0206A1F49012220F440700A60CA
:1014300000220A602062C00711D0FFF733FA074686
:1014400041F2883808E000BFFFF72CFAC11B414584
:1014500002D90320BDE8F883206A8007F4D5206A0A
:10146000696820F44070084320621EB1E06920F0F2
:101470008050E0612878800705D56068A96820F46D
:101480004040084360602878C00605D560686969F7
:1014900020F48000084360600020DBE70010024079
:1014A00000700040400442422DE9F0470F4605001D
:1014B00061D0434E306800F00700B84209D230686E
:1014C00020F0070038433060306800F00700B84271
:1014D00051D128683B4C810712D5400703D560687D
:1014E00040F4E06060602878000703D5606840F44D
:1014F000605060606068A96820F0F0000843606098
:101500002878C00728D06868012810D021680228F0
:1015100010D0890700292EDA616821F00301014308
:101520006160FFF7BFF9804641F288390DE021681C
:101530008903EFE78901EDE7FFF7B4F9A0EB0801B4
:10154000494502D90320BDE8F0876068696800F06A
:101550000C00B0EB810FEFD1306800F00700B8420B
:101560000BD9306820F0070038433060306800F055
:101570000700B84201D00120E5E72878400705D5EB
:101580006068E96820F4E06008436060287800073C
:1015900006D56068296920F4605040EAC1006060A7
:1015A00000F038F86168084AC1F30311515CC84083
:1015B0000649086006480068FFF794F90020C2E772
:1015C0000020024000100240F85B000814000020D8
:1015D0000C0000200448054900684968044AC1F32A
:1015E0000221515CC84070471400002000100240E6
:1015F000085C00080448054900684968044AC1F3CA
:10160000C221515CC8407047140000200010024005
:10161000085C000812A185B00FC98DE80F0014A066
:10162000144A006804905168134801F00C03042B1D
:1016300010D0082B0ED1C1F38343C9031DF803005A
:101640000AD5516804AAC1F34041515C0A4A50438B
:10165000B0FBF1F005B0704708494843FAE70000D5
:1016600002030405060708090A0B0C0D0E0F1010E3
:10167000010200000010024000127A0000093D0043
:101680002DE9F84F040070D02078C04DC00749D034
:101690006868C0F38100012807D06868C0F3810042
:1016A000022809D16868C00306D52868800339D5A7
:1016B00060680028E7D035E06068B0F5803F0BD067
:1016C00010B1B0F5A02F11D0286820F48030286028
:1016D000286820F4802002E0286840F480302860E8
:1016E000606890B1FFF7DEF806460AE0286840F42B
:1016F00080202860F0E700BFFFF7D4F8801B642843
:1017000073D828688003F7D50CE0FFF7CBF80646BE
:1017100005E000BFFFF7C6F8801B6428F0D82868F2
:101720008003F7D420789A4E80074FF001094FF0DC
:10173000000839D5686810F00C0F07D06868C0F34E
:101740008100022809D16868C00306D42868800790
:1017500014D52069012808D110E02069B0B1C6F87D
:101760000090FFF79FF8074605E00AE1FFF79AF8B7
:10177000C01B0228C4D828688007F7D5286861698B
:1017800020F0F80040EAC10028600DE0C6F80080B3
:10179000FFF788F8074604E0FFF784F8C01B02282B
:1017A00023D828688007F7D4207800072CD57948FB
:1017B000A169D9B1C0F80090FFF774F8074604E0BA
:1017C000FFF770F8C01B02280FD8686A8007F7D5AA
:1017D00071484FF4FA510068B0FBF1F0009000BF7F
:1017E0000098411E0091FAD20EE080E0C0F800801F
:1017F000FFF758F8074604E0FFF754F8C01B02282B
:1018000075D8686A8007F7D42078400760D5E86902
:101810000027C00008D4E86940F08050E861E8691A
:10182000012700F0805000905C480168C90513D47E
:101830000168834641F480710160FFF733F8824606
:1018400006E000BFFFF72EF8A0EB0A0064284ED890
:10185000DBF80000C005F5D5E06801280AD008B122
:10186000052813D0286A20F001002862286A20F099
:10187000040002E0286A40F001002862E06841F2BA
:10188000883B98B1FFF70EF882460BE0286A40F0DB
:1018900004002862EEE700BFFFF704F8A0EB0A019E
:1018A00059455AD8286A8007F6D50CE0FEF7FAFFAA
:1018B000824605E0FEF7F6FFA0EB0A0159454CD839
:1018C000286A8007F6D41FB1E86920F08050E861EB
:1018D000E06988B36968C1F38101022944D0022814
:1018E000C6F8608004D0FEF7DDFF044638E034E03F
:1018F000FEF7D8FF074604E0FEF7D4FFC01B02281E
:101900002BD828688001F7D4206AB0F5803F05D134
:101910006868A16820F4003008436860D4E90801D1
:101920000843696821F4741108436860C6F8609040
:10193000FEF7B8FF044606E025E000BFFEF7B2FF61
:10194000001B022809D828688001F7D51BE000BFDA
:10195000FEF7A8FF001B022802D90320BDE8F88F7C
:1019600028688001F4D40EE00128F7D06868226A64
:1019700000F48031914204D1616A00F47010884211
:1019800001D00120EAE70020E8E700000010024053
:1019900000004242800442421400002000700040D7
:1019A00070B5040009D0606A002540B12561656109
:1019B000A56294F8510040B10CE0012070BD606850
:1019C000B0F5827FF4D0E561F2E784F8505020460C
:1019D00000F040F8022084F851002068016821F0EE
:1019E00040010160A088218900F4827001F4044163
:1019F0000843A18901F400610843217C01F0020140
:101A00000843217D01F001010843218B01F400719D
:101A10000843217F01F03801084394F8201001F0B9
:101A200080010843218D01F40051084321680860BA
:101A3000A069042101EA1040216848602068C1695A
:101A400021F40061C1616565012084F85100002026
:101A500070BD0000F0B585B000240094019402949C
:101A600003940646374D0368374802210322AB42F0
:101A700040D1836943F480538361836903F48053C5
:101A80000493836943F0040383618069039200F047
:101A900004000490A020CDE9000169462B48FEF720
:101AA000FFFD2C4D2A48802701C5102091C52948EB
:101AB00045F810496C61AC61EC61FEF789FD08B135
:101AC000FEF73DFCB5646E62224D21484435143862
:101AD000C5E90004C5E902472C616C61AC61284688
:101AE000EC61FEF775FD08B1FEF729FCF5646E6246
:101AF00005B0F0BD184DAB42FAD1C36943F4804341
:101B0000C361C36903F480430493836943F008030A
:101B100083618069114D00F0080004904FF420406B
:101B2000CDE90001039269462846FEF7B9FD4FF45E
:101B30008040CDE90004694628460294FEF7B0FDD6
:101B4000D6E70000003001400010024000080140CC
:101B500030000240D804002000380040000C014052
:101B60002DE9F84F044640680025984616460F4672
:101B70004FF0040BB0F5827F01D1A06888B194F8D2
:101B80005000012818D0012084F85000FEF78AFE8A
:101B9000814694F851004FF0000A01280ED002252A
:101BA00082E084F851B013460A462046CDF8008002
:101BB00000F036F9BDE8F88F0220FBE7002F72D065
:101BC000002E70D084F851B0C4F854A0A763A68743
:101BD000E687C4F830A0A4F834A0A4F836A0C4F86E
:101BE00040A0C4F844A0A068B0F5004F09D1206817
:101BF000016821F0400101602068016821F4804102
:101C0000016020680168490603D4016841F0400181
:101C10000160E068D8B139E020688168C90709D05F
:101C2000007BA16B0870A06B401CA063E08F401E7E
:101C3000E0870CE0FEF736FEA0EB0901414503D337
:101C4000B8F1FF3F03D036E0B8F1000F33D0E08F9A
:101C50000028E1D11DE020688168C90709D0C0686B
:101C6000A16B0880A06B801CA063E08F401EE08702
:101C70000CE0FEF717FEA0EB0901414503D3B8F1D4
:101C8000FF3F03D017E0B8F1000F14D0E08F002819
:101C9000E1D14A464146204601F055F908B12020DD
:101CA0006065606D00B10125012084F8510084F861
:101CB00050A028467EE70325F6E72DE9F84F0446B5
:101CC00090F8500000271D461646894601280DD081
:101CD0004FF0010B84F850B0FEF7E4FD804694F815
:101CE0005100BA46012804D0022793E00220BDE843
:101CF000F88FB9F1000F73D0002E71D0032084F853
:101D00005100C4F854A0C4F83090A686E686C4F802
:101D100038A0A4F83CA0A4F83EA0C4F844A0C4F89D
:101D200040A0A068B0F5004F09D12068016821F0FB
:101D3000400101602068016841F480410160206831
:101D40000168490603D4016841F040010160E06880
:101D5000B0F5006F606803D030B3012E24D041E0AD
:101D600008B1012E1CD1206B21680088C86006E0F4
:101D700020688168890709D5216B0988C160206BBB
:101D8000801C2063E08E401EE08609E0FEF78AFD9D
:101D9000A0EB0800A84202D3681C01D031E07DB35B
:101DA000E08E0028E4D120E0206B216800780873E1
:101DB00006E020688168890709D5216B09780173DD
:101DC000206B401C2063E08E401EE0860AE0FEF798
:101DD00069FDA0EB0800A84203D3681C02D010E004
:101DE00017E06DB1E08E0028E3D142462946204637
:101DF00001F0D7F808B120206065A06818B106E0AE
:101E0000FFE7032706E02068C16880680090606DE6
:101E100000B1012784F851B084F850A0384666E735
:101E20002DE9F84F044690F8500000270A9E1D4601
:101E300092468B464FF0010901280ED0012084F80C
:101E40005000FEF72FFD804694F85100616801288C
:101E50000CD0B1F5827F07D102E00220BDE8F88FF7
:101E6000A16809B9042801D00227C2E0BBF1000F24
:101E700027D0BAF1000F24D01DB394F851000428E4
:101E800002D0052084F8510000206065C4F838A015
:101E9000E587A587C4F830B0E586A5862064606430
:101EA00020680168490603D4016841F040010160DF
:101EB000E068B0F5006F606805D0E8B3012D46D04A
:101EC0007FE0012795E008B1012D39D1206B216811
:101ED0000088C860206B801C2063E08E401EE08676
:101EE0002EE02068816889070FD5E18E69B1B9F1CC
:101EF000010F0AD1216B0988C160206B801C20630F
:101F0000E08E401EE0864FF0000920688168C90716
:101F10000CD0E18F51B1C068A16B0880A06B801C10
:101F2000A063E08F401EE0874FF00109FEF7BAFC86
:101F3000A0EB0800B04200E009E001D3701C50D1D2
:101F4000E08E0028CDD1E08F0028CAD13FE0206B81
:101F5000216800780873206B401C2063E08E401ECF
:101F6000E0862EE02068816889070FD5E18E69B18F
:101F7000B9F1010F0AD1216B09780173206B401C64
:101F80002063E08E401EE0864FF0000920688168E3
:101F9000C9070CD0E18F51B1C068A16B0870A06B6C
:101FA000401CA063E08F401EE0874FF00109FEF760
:101FB00079FCA0EB0800B04202D3701C01D010E005
:101FC0007EB1E08E0028CDD1E08F0028CAD14246F4
:101FD0003146204600F0E5FF28B10127202060654A
:101FE00007E0032705E0A06818B92068C168806889
:101FF0000090012084F85100002084F850003846F9
:102000002CE710B5401EB0F1807F01D3012010BD38
:102010004FF0E02460610F21601702F04DFD0020B9
:10202000A06107202061002010BD70B5040004D01D
:1020300094F83D00002510B106E0012070BD84F841
:102040003C50204600F022F8242084F83D0020680F
:10205000C16821F40051C160204601F0C1F8206838
:10206000016921F4904101612068416921F02A0150
:1020700041612068C16841F40051C160256420209D
:1020800084F83D0084F83E00002070BD30B585B076
:102090000024009401940294039400681449884237
:1020A00024D11448816941F480418161816901F43E
:1020B00080410491816941F00401816180690E4D84
:1020C00000F0040004904FF4007000900220019092
:1020D0000320039069462846FEF7E2FA2815CDE969
:1020E0000004694628460294FEF7DAFA05B030BDCE
:1020F000003801400010024000080140FEE70000E7
:10210000F0B500230A24302537261F4611E000BF12
:10211000B4EB107F02D905EB107C01E006EB107CDC
:1021200001F813C001EB430C00015B1C8CF801703B
:10213000DBB29342ECD3F0BD012002F0FDFCFBE7E3
:1021400070B5D0F8B842054604F58051087E38B91C
:10215000486928B1607A18B90121284601F0A4FB2A
:102160008121284601F0A0FB607A022809D141F2C2
:102170000C0022182846BDE870401F23012101F001
:1021800013BB70BD70B5D0F8B842064604F5805553
:1021900001212869286368696863304601F0ACFA58
:1021A0001F280AD12649E868884206D1697E01299C
:1021B00003D8A87E08B1102808D9697E20230522FB
:1021C000304600F045FE022060720AE041F21B003A
:1021D0002218304600F010FC0028207A08DA052882
:1021E00004D03046BDE87040FFF7AABF012121E0CE
:1021F000022824D0012822D0032820D06589C5B127
:1022000004F10C02D6F8B842304604F580514B690F
:10221000AB4200D32B464E6B9BB2751B4D63002522
:1022200081F8385004212172BDE87040812101F00D
:1022300056BB00213046BDE8704000F08BB870BD41
:102240005553424310B5D0F8B842627A022A08D0FA
:1022500009060BD5012A09D0BDE81040012100F084
:1022600079B8812101F020FB0020607210BD10B50B
:10227000D0F8B8220446107A022805D0032801D0ED
:10228000042811D100210AE041F21900815C801C70
:102290000244204600F0B0FB002805DA0121204668
:1022A000BDE8104000F056B810BD10B5D0F8B82207
:1022B0000446107A88B1012814D141F21900815CDA
:1022C000801C0244204600F097FB00280ADA2046D2
:1022D000BDE81040012100F03DB82046BDE81040A7
:1022E000FFF750BF10BDD0F8B8020021017270474F
:1022F00070B5D0F8B84205460021217204F580502F
:10230000617280F85D1080F85C10D5F8BC0201683D
:10231000002088470121284601F0E5F9812128465F
:1023200001F0E1F941F20C0022182846BDE87040A6
:102330001F23012101F038BAD0F8B81200221F2360
:102340000A7201224A7241F20C020A44012101F090
:102350002BBA000070B5D0F8B842054604F580529B
:102360000B48D06282F838100020207241F22C0015
:1023700022180D238121284601F0B1FA41F20C0008
:1023800022182846BDE870401F23012101F00CBA35
:10239000555342530D4808B5416941F0010141616F
:1023A0004069002200F00100009005210C20FEF79A
:1023B000EBFA0C20FEF7DAFA002205210D20FEF7D9
:1023C000E3FABDE808400D20FEF7D0BA0010024045
:1023D00010B504490448FDF7B4FF0249491E0870CE
:1023E00010BD0000CD010020B801002010B58EB056
:1023F00003220021012003F090F81949086020B160
:1024000000231A46194603F0F1F8032200210120A7
:1024100003F083F81349086020B100231A461946D7
:1024200003F0E4F8012003F06DF80F491C22086066
:102430000E496846FDF7E4FE0021684602F088FB7D
:102440000B4C0A491C2220601C3107A8FDF7D8FE5E
:10245000002107A802F07CFB60600EB010BD0000F8
:102460007C0000208000002094000020C05B000859
:10247000000000202DE9F04F85B000244148009471
:10248000019402940394816941F040018161816962
:1024900001F040010491816941F01001816181697D
:1024A00001F010010491816941F0040181618169A9
:1024B00001F004010491816941F0080181618069A2
:1024C000DFF8C48000F0080004900022202140467C
:1024D000FEF7E2F9DFF8B490002258214846FEF7F3
:1024E000DBF9DFF8ACA0012210215046FEF7D4F949
:1024F000DFF8A0B04FF48157002239465846FEF766
:10250000CBF9182000902448CDE9010469464046E3
:10251000FEF7C6F8202001250226CDE90005CDE909
:10252000024669464046FEF7BBF85820CDE9000553
:10253000CDE9024669464846FEF7B2F81020CDE9DB
:10254000000569465046CDE90245FEF7A9F8009717
:102550000396CDE9015469465846FEF7A1F80022DA
:1025600005210920FEF710FA0920FEF7FFF90022E5
:1025700005210A20FEF708FA0A20FEF7F7F905B050
:10258000BDE8F08F00100240001801400008014033
:1025900000100140000C014000002110114810B54E
:1025A0000F4901604FF4827141604FF40041816036
:1025B00000210222C0E9031201224261520282611B
:1025C0000822C0E90721416281620A21C162FFF746
:1025D000E7F9002803D0BDE81040FDF7B0BE10BDFC
:1025E0000030014028040020104810B50E49016059
:1025F0004FF482714160002102228160C0E9031220
:10260000012242615202C0E90621016241628162F7
:102610000A21C162FFF7C4F9002803D0BDE81040C9
:10262000FDF78DBE10BD0000003800408004002082
:102630000C4810B50A4901604FF4E13141600021B6
:1026400081600C22C160C0E904128161C161FFF7A1
:10265000ECFC002803D0BDE81040FDF770BE10BDB3
:10266000003801406005002010B500220F491048D5
:1026700000F06EFF08B1FDF762FE0E490C4801F054
:1026800045FA08B1FDF75BFE0B49094801F09AF9DC
:1026900008B1FDF754FE064801F08EFA002803D079
:1026A000BDE81040FDF74BBE10BD0000A0000020AB
:1026B0009412002014010020F0000020FEE7FEE745
:1026C0002DE9F84F044640F68F7B48F60F7A4FF01D
:1026D00002094FF4806874E1B0F8441011F00F065D
:1026E0003AD030F8267039047DD530F8261001EA4A
:1026F0000B0141F0800120F8261006EB860004EB68
:10270000C00595F8740105F5B47500286CD0E8781B
:1027100002286AD02878226832F8201048F68F7391
:10272000194048F2C003194322F820102878D4F841
:1027300000C03CF82010BCF8502049047ED509EBBD
:10274000C000111808EB41003CF800008005800D26
:10275000009074D02A89D8E0C9062DD4018801EAF6
:102760000A0141F400410180216804F12805B1F813
:1027700050202B7809EBC300024408EB4200085AB2
:10278000C0F309006064E16B0844E0630021204667
:10279000FEF74BF994F8240000289CD0A869002883
:1027A00099D194F82400216840F08000A1F84C00F1
:1027B000002084F8240004E1018804F5B4750A05BA
:1027C00021D5B0F850202B78062101EBC3010A4433
:1027D00008EB4201405A04F52C71C0F30903EB6188
:1027E000EA88206802E0ACE068E07AE002F084F871
:1027F0002168088800EA0B0040F08000088020462D
:10280000FEF7A9FDDDE00904D5D5018801EA0B0139
:1028100041F0800101802068B0F850202B7806211B
:1028200001EBC3010A4408EB4201405A83059B0DAA
:10283000EB6110D0696971B1EA8801E058E056E0B7
:10284000206802F059F8E969686908446861002164
:102850002046FEF7F3F82068018809052DD4B0F86A
:1028600050100844296900F20C4051B13E2910D89B
:102870004A08C90700D0521C4FF6FF7101EA8221B5
:102880000FE0018821F4F8410180018841F4004102
:1028900007E04A09C90600D1521E4FF4004141EA3F
:1028A00082210180206801884BF68F72114081F4EB
:1028B000405148F280021143018082E0D4F800C008
:1028C000BCF850102A78062000EBC200014408EB47
:1028D00041003CF800008005800D00901AD0EA8885
:1028E00013E03A4629462046FEF706F9009011E02B
:1028F000062101EBC000111808EB41003CF8000074
:102900008005800D009005D06A890346604669699C
:1029100001F0F2FFE96900980844E86169690098EC
:1029200008446861A86918B129690098814204D9EE
:1029300029782046FEF782F803E02946206801F056
:10294000BDFC38063DD506EB860004EBC0012068CF
:1029500030F8262002EA0A0242F4004220F826203B
:1029600091F82B002831032804D018B1022824D173
:10297000F80522D42368B3F850200D7809EBC50080
:10298000024408EB4200185A8A69C0F309008242E7
:102990000CD9121A8A610BD04A6902444A61CA6989
:1029A0001044C861206801F089FC0AE000208861B9
:1029B000E9B22046FEF739F803E03A462046FEF732
:1029C0000EF92068B0F8441009043FF585AE0020E8
:1029D000BDE8F88F10B5D0F8B8421A4404F5805419
:1029E000236E9A4206D92123052200F031FA4FF0D6
:1029F000FF3010BD002010BD2DE9F04113780024F8
:102A0000232B70D00DDC1A2B6ED005DCEBB1032B21
:102A100039D0122B11D168E01B2B01D01E2B0CD109
:102A20008FE02A2B72D004DC252B70D0282B04D108
:102A3000ADE02F2B6CD05A2B6BD02023052200F059
:102A400007FA4FF0FF30BDE8F081D0F8B8720546C4
:102A500007F580500E46416921B1417E20230522B1
:102A60002846A1E0D5F8BC0281683046884740B1CD
:102A70003A2302223146284600F0EAF9052038724E
:102A80009FE07C819DE0D0F8B80200214318491CEA
:102A9000C9B21C731229F9D3702101730C21C174BE
:102AA00000F5805191F85C5091F85D309D4213D053
:102AB00000EBC503A3F6C47303F500536D1C1E7829
:102AC00086735E7906761B794376EBB281F85C30CB
:102AD000042B01D181F85C40122141811179122926
:102AE0006FD841816DE04CE02FE05478D0F8B832D7
:102AF000E4070FD0072034495881401E0004000C21
:102B000003EB00040A5C2273F7D15AE042E03BE099
:102B100043E028E0D0F8BC0201EBC1011279C069A2
:102B200000EB81010879401D824200D8104658818F
:102B300004E0401E80B21C180A5C22730028F8D101
:102B40003FE0D0F8B80244813BE0D0F8B81208204A
:102B50001E4A4881401E0004000C01EB0004135C77
:102B60002373F7D12DE0D0F8B8020821184A41812B
:102B7000491E0904090C00EB0104535C2373F7D1CF
:102B80001FE000F02EF91CE000F0FDF819E000F065
:102B9000B1F816E000F07CF913E05278D0F8B852A2
:102BA000920704D52423052200F052F909E0A5F686
:102BB0009C7202F500520CCAFFF70CFF002800DBE4
:102BC0006C8100203FE70000345C00083B5C00089B
:102BD000435C00082DE9F047D0F8B862074606F5D7
:102BE00080548846B4F85E00A56E4FF4805145438A
:102BF0008D4200D30D46B5FBF0F083B2D7F8BC028E
:102C000006F10C01626ED0F810C089464046E047DC
:102C1000002809DA112304224146384600F018F949
:102C20004FF0FF30BDE8F087ABB24A46812138460D
:102C300000F055FEB4F85E00626EB5FBF0F1B5FB36
:102C4000F0F011446166A16E081AA066616BA1EBF9
:102C50000501616301D1032030720020E2E72DE914
:102C6000F0478846D0F8B812074601F580544FF473
:102C70008055B4F85E00A66E4643AE4200D32E46A1
:102C8000B6FBF0F083B2D7F8BC020C31626ED0F81C
:102C900014C089464046E047002809DA032304228D
:102CA0004146384600F0D4F84FF0FF30BDE8F087D9
:102CB000B4F85E10626EB6FBF1F010446066B6FBCD
:102CC000F1F0A26E101AA066626BA2EB06026263BC
:102CD0000BD04843A84200D20546ABB24A46012178
:102CE000384600F061FD0020E0E700213846FFF79C
:102CF00031FBF8E72DE9F047D0F8B8520746164601
:102D0000287A8946A8BB05F580544FF0FF38207E0D
:102D100000062AD5D7F8BC0281684846884730B1FA
:102D20003A2302224946384600F092F811E0D6F8DC
:102D30000200494600BA20F0FF0270790243626641
:102D4000B6F8070043BA3846A366FFF743FE0028EB
:102D500002DA4046BDE8F08702202872B4F85E101F
:102D6000A06E48436169884204D02023617E052219
:102D7000D9E7FFE74FF48050688149463846BDE8FF
:102D8000F047FFF727BF70B505460E46D5E9AE40C0
:102D900004F58351436841F25E002218304698479B
:102DA00040B13A2302223146284600F051F84FF054
:102DB000FF3070BD04F58051086E401E020E227374
:102DC000020C6273020AA273E07300202074607424
:102DD000B1F85E00010AA174E0740820608100204F
:102DE00070BD2DE9FC410546D0F8B84200200F46E1
:102DF00006462118401C80B20E730C28F9D3D5F872
:102E0000BC026A4601A943683846984748B13A234C
:102E100002223946284600F01BF84FF0FF30BDE88B
:102E2000FC810820E0730198401E010E2174010C02
:102E30006174010AA174E074022020756675BDF802
:102E40000000010AA175E0750C2060810020E6E712
:102E5000D0F8B81201F5805090F85D3001EBC30353
:102E600003F5805383F83C2090F85D30002201EB9D
:102E7000C30101F5805181F8402090F85D10491C94
:102E8000C9B280F85D10042901D180F85D20704737
:102E90002DE9F047D0F8B85206461746287A8946F9
:102EA00020B13046BDE8F047FFF7D9BE05F58054A4
:102EB0004FF0FF38207E000631D4D6F8BC0281687E
:102EC0004846884728B13A230AE03046FFF7C0FF5A
:102ED0001BE0D6F8BC02C1684846884718B12723D2
:102EE00002224946F1E7D7F80200494600BA20F02D
:102EF000FF02787902436266B7F8070043BA3046AA
:102F0000A366FFF767FD002802DA4046BDE8F087B8
:102F1000B4F85E00A16E41436069884203D020236B
:102F2000617E0522D1E74FF48050814200D30146F3
:102F300001208BB22872014605F10C02304600F0E8
:102F400033FC0020E2E7F8B5044640684FF4827392
:102F5000984217D1A0684FF48065B0F5004F01D0BA
:102F6000A8420FD12068066826F040060660606817
:102F7000984207D1A068A84204D100920B460022D3
:102F8000012103E000920B4600228021204600F040
:102F900053F8002804D0606D40F0200060650320E5
:102FA000F8BD38B50B46009204460022802100F09F
:102FB00043F8002804D0606D40F0200060650320D5
:102FC00038BD00002DE9F8430446080C8DF80000D8
:102FD000080A8DF8010090468DF8021001F0D6FC29
:102FE000C007FBD1114E4FF48055002229463046D0
:102FF000FDF752FC4CF250373B4601220C490D487C
:10300000FEF75BFE3B46032269460A48FEF755FE83
:103010004FF47A73424621460648FEF7A1FD01228D
:1030200029463046FDF738FCBDE8F883000C014026
:103030009D000020800400202DE9F8431E469146A3
:1030400088460446089DFDF72DFC401B351AFDF708
:1030500029FC074625480068C0F3CB30684338E0B8
:10306000701C37D0FDF71EFCC01BA84203D215B15F
:10307000009860B32CE02068416821F0E0014160D5
:103080006068B0F5827F0BD1A068B0F5004F02D028
:10309000B0F5806F04D12068016821F04001016023
:1030A000A06AB0F5005F09D12068016821F40051E1
:1030B00001602068016841F400510160012084F83A
:1030C0005100002084F850000320BDE8F88300255B
:1030D000401E00902068816838EA010004D0002179
:1030E0004945BDD10020F0E70121F9E71400002097
:1030F0004FF400700860C00010800020704700206E
:103100007047002070470020704700207047084635
:10311000110310B54FF6FF7202EA0332FFF752FFB8
:10312000002010BD70B514031D460E462046FDF765
:10313000C9F82A032146304601F050FC002070BD3A
:10314000FFF792FA012001F0F7FCFBE710B5FDF75D
:10315000AFFB02F0DBFB012803D0BDE8104002F01A
:10316000BBB910BD30B595B028216846FDF761F8B0
:1031700014210AA8FDF75DF818210FA8FDF759F8EA
:1031800001210804CDE900100024029402250491D5
:10319000CDE90750000109906846FEF771FA08B1C1
:1031A00072B6FEE70F20CDE90A054FF48060CDE945
:1031B0000C4001210AA80E94FEF776F908B172B608
:1031C000FEE710200F90800414900FA8FEF7F6F889
:1031D000002801D072B6FEE715B030BD7047000080
:1031E00070B5044600680169E26821F4405111435A
:1031F00001612169A0680843616908432168CA68C0
:1032000041F20C639A430243CA6020684169A26993
:1032100021F44071114341611E492068884202D166
:10322000FEF7E8F901E0FEF7D5F900EBC00101EB8C
:103230000012606864218000B2FBF0F3B3FBF1F38D
:103240006FF018067343B2FBF0F5B2FBF0F605EB36
:103250008305322303EB0515B5FBF1F5B6FBF1F65B
:1032600005F0F00505EB0615B2FBF0F6B2FBF0F049
:10327000B0FBF1F06FF01802504306EB800003EB57
:103280000010B0FBF1F0216800F00F0028448860C6
:1032900070BD00000038014010B5D0F8B42252686B
:1032A0009047002010BD134610B50A46002100F0DB
:1032B0007BFA002010BD134610B50A46002100F02D
:1032C0000EFB002010BD10B50446802100F0ECFA82
:1032D0002046BDE81040002100F0E6BA10B50521F7
:1032E0000023C0F894121A46194600F05DFA002037
:1032F00010BD10B50223C261C0F8943202621346B9
:103300000A46002100F0EBFA002010BD10B50421A0
:103310000023C0F894121A46194600F0E0FA002083
:1033200010BD000010B50A46024903A000F0E0F805
:10333000004810BD581500204D534320436F6E6662
:10334000696700001220088000487047C000002014
:1033500010B50A46024903A000F0CAF8004810BDA3
:10336000581500204D534320496E746572666163A1
:10337000650000000420088000487047BC00002061
:1033800010B50A46024903A000F0B2F8004810BD8B
:103390005815002053544D6963726F656C656374F2
:1033A000726F6E696373000010B50A46024903A08C
:1033B00000F09EF8004810BD5815002053544D33BE
:1033C00032204D6173732053746F72616765000022
:1033D00010B51A2008800A480168001D0468001D05
:1033E0000068081809D008220649FEF789FE054939
:1033F000042210312046FEF783FE0248801E10BDD5
:10340000E8F7FF1FD6000020F8B504460020ADF80D
:10341000000048880D46010A082948D2DFE801F07B
:103420004704091747473C45D4F8B012207C0A6886
:1034300019E0207C02260028D4F8B40205D0C16A25
:1034400068468847014646703EE0816AF8E7C0B2A8
:1034500006282CD2DFE800F0030A1014181CD4F858
:10346000B002426805E0694690471CE0D4F8B0021B
:103470008268E2B1207CF6E7D4F8B002C268F8E7CF
:10348000D4F8B0020269F4E7D4F8B0024269F0E778
:10349000D4F8B0028269ECE7207C40B9D4F8B402D9
:1034A000416B6846884701460EE0207C20B12946E2
:1034B0002046FFF708FFF8BDD4F8B402016B684658
:1034C0008847014607204870BDF8000048B1EA88E7
:1034D00052B1824200D90246ADF800202046FFF7E3
:1034E00008FFE8880028E6D12046FFF70FFFF8BD67
:1034F00070B5002300281ED00446002502E06D1C94
:10350000EDB2641C2678002EF9D1022404EB4504A8
:1035100014801278CA545B1C0322CA5400245B1C1A
:1035200006E0CA545B1CDAB28C54521CD3B2401C65
:103530000278002AF5D170BD01004FF0000004D0E0
:10354000012901D0022901D00220704701207047D3
:1035500010B580B1D0F8B43213B10023C0F8B43242
:1035600009B1C0F8B012012180F89C12027000F07D
:10357000C7F8002010BD022010BD10B5D0F8C00261
:10358000FDF78CFABDE81040FFF7D6BF10B5D0F8B4
:10359000C002FDF75DFABDE81040FFF7CDBF2DE991
:1035A000F0411746044651B1D4F8B40242691AB149
:1035B00094F89C02032851D00220BDE8F081D4F891
:1035C0009432002504F11400022B03D0042B3AD0CE
:1035D000C3B33CE0D0E903639E4207D9F11AC1604E
:1035E0008AB239462046FFF766FE12E08068B0FBDB
:1035F000F3F103FB110199B9984211D3D4F8981251
:1036000088420DD2002211462046FFF754FEC4F82E
:10361000985200231A461946204600F0C5F816E0D5
:10362000D4F8B402C16829B194F89C02032801D1EE
:10363000204688478021204600F036F92046FFF7D3
:103640004DFE04E0FFE78021204600F02DF994F8BC
:10365000A002012804D184F8A05201E0204690473E
:103660000020AAE770B51546044649B1D4F8B40263
:1036700082691AB194F89C02032830D0022070BDF0
:10368000D4F8941204F5AA70032902D005291ED09B
:1036900027E0D0E903218A420BD9531AC3600846B8
:1036A000834200D303469AB229462046FFF7FBFD2A
:1036B00017E0D4F8B402016929B194F89C020328F8
:1036C00001D1204688472046FFF720FE09E0002070
:1036D0000146C4F89402204600F0E6F801E02046D6
:1036E0009047002070BD10B5D0F8C002FDF70FFC68
:1036F000BDE81040FFF720BFD0F8C002FDF721BCA5
:1037000010B519490446C1F8E802C0F8C0121748BC
:103710000860082048600220886000208861C86135
:1037200008620846FDF75CFD08B1FCF708FE0022C0
:10373000D4F8C0021823114604F53074FDF756F989
:103740005823002280212068FDF750F99823002299
:1037500081212068FDF74AF9D82300220121206841
:10376000FDF744F9002010BDC8270020005C004090
:103770000A0601F07F01D0F8C00201EB810100EBE5
:10378000C10002D590F82A00704790F86A0170478E
:1037900010B51C461346D0F8C0022246FDF7DAFBEE
:1037A000BDE81040FFF7C8BE10B5D0F8C002FDF765
:1037B00001FCBDE81040FFF7BFBE70B50022044613
:1037C00040231146FFF7E4FF40260125C4F8646159
:1037D0003346002280212046C4F85851FFF7D8FF15
:1037E0006662A56184F89C520020C4F8940260606F
:1037F000C4F8A402D4F8B80228B1D4F8B402002165
:10380000426820469047002070BD90F89C12042921
:1038100003D190F89D1280F89C120020704710B5DB
:1038200090F89C12032904D1D0F8B412C96901B1EF
:103830008847002010BD01740020704710B5D0F8F3
:10384000C002FDF774FDBDE81040FFF775BE70B50E
:10385000044600F52A70054600F044F90120C4F83A
:103860009402B4F8AE02C4F8980294F8A80210F0DA
:103870001F010AD001290DD0022910D000F08001CB
:10388000204600F011F8002070BD2946204600F0C7
:1038900098F9F8E72946204600F0C4FAF3E72946EC
:1038A000204600F017FAEEE710B5D0F8C002FDF799
:1038B0009AFBBDE81040FFF73FBE10B5D0F8C0023C
:1038C000FDF750FDBDE81040FFF736BE90F89C12A2
:1038D00080F89D12042180F89C120020704710B5DA
:1038E000D0F8C002FDF7B8FBBDE81040FFF724BEDA
:1038F00010B5FEF7BCFC002010BD10B5FEF7D5FCDE
:10390000002010BD70B504460121FFF73FFE0025E1
:1039100081212046C4F86C51FFF738FE2046E5624D
:10392000FEF7E1FCD4F8B80218B100F0A2FAC4F82E
:10393000B852002070BD00000A2101800048704785
:10394000AC01002020210180004870476C0100205C
:1039500020210180004870474C0100202021018077
:10396000004870478C01002070B50446007C01259A
:10397000D0B14023022201212046FFF709FF402356
:10398000C4F86C51022281212046FFF701FF41F269
:103990006C00E56200F06EFAC4F8B80280B120460F
:1039A000FEF7A6FC002070BD4FF4007633460222DD
:1039B00001212046FFF7ECFE3346C4F86C51E1E7E5
:1039C000022070BD09B1C0F8BC12002070472DE97B
:1039D000F8430026D0F8B8720546ADF800600878C4
:1039E0000C46B04610F0600120D020293DD161780E
:1039F000FE2902D0FF2938D10EE0618881BBE18821
:103A0000012932D1000630D5D5F8BC028069804743
:103A10000122394638601FE0618809BBE188F9B9A5
:103A2000000622D42846FEF787FC23E0607830B1F8
:103A3000012825D00A2809D00B2816D111E095F8C5
:103A40009C02032811D10222694605E095F89C02E8
:103A500003280AD10122391D2846FFF74AFC09E054
:103A600003E095F89C02032807D021462846FFF77B
:103A70002AFC02263046BDE8F883A0787860F9E792
:103A800021792846FFF72FFE21792846FFF77EFD92
:103A9000A0884FF00107010600F00F0000EB800046
:103AA0004FF4007305EB80000BD5C0F81880287C1C
:103AB00000B14023022281212846FFF769FEEF6210
:103AC0000BE0C0F85881287C00B14023022201217C
:103AD0002846FFF75DFEC5F86C7121792846FEF790
:103AE000B1FBC7E70A7802704A7842708A78CB78CF
:103AF00002EB032242800A794B7902EB0322828097
:103B00008A79C97902EB0121C18070470246002001
:103B100011B1C2F8B41270470220704710B5D0F846
:103B2000B42202241AB11268904700B9002420463A
:103B300010BD000070B50E461E4D897804462970F0
:103B4000012931D894F89C0202280BD003280FD009
:103B500031462046FFF7B7FB29782046BDE8704084
:103B6000FFF79ABBD9B10320616084F89C0209E099
:103B700071B16068884212D0C1B22046FFF78CFB59
:103B8000297861602046FFF7C9FF02280CD006E0C3
:103B9000022084F89C0220466160FFF77DFB2046EE
:103BA000BDE87040FFF7B2BB31462046BDE870402B
:103BB000FFF789BB1001002010B5FFF77EFE002043
:103BC00010BD2DE9F0410A78002612F0600208D0FD
:103BD000202A01D0402A70D1D0F8B42292689047B0
:103BE0006DE04B78002201250A2B66D2DFE803F056
:103BF000405D6557650805652C29FFF705FC5EE00B
:103C000004468888D8B9C888C8B94888802816D298
:103C100000F07F0794F89C02032810D084F89E726D
:103C200039462046FFF70AFE2046FFF76FFB1FB11B
:103C3000022084F89C0242E084F89C523FE0204637
:103C40003BE0FFF777FF3AE0CB88012B35D190F8C6
:103C50009C32012B04D0022B02D0032B2DD104E087
:103C60008260012200F1080116E00122011D13E02B
:103C700090F89C22012A03D0022A01D0032A1CD1E9
:103C8000CA88022A19D1C560D0F8A41209B103214B
:103C9000C160022200F10C01FFF72BFB0FE0498805
:103CA00001290CD1C0F8A45211E090F89C32012BEC
:103CB00008D0022B06D0032B04D0FFF704FB3046BC
:103CC000BDE8F08149880129F9D1C0F8A422FFF7A5
:103CD0001DFBF4E72DE9F0410A4604461078002761
:103CE000097910F060030AD0202B01D0402B50D16D
:103CF000D4F8B40211468368204698478FE0C0F399
:103D00004110012806D05078D0B301282AD00328CA
:103D10003FD107E0D4F8B402114683682046BDE8DD
:103D2000F041184794F89C02022802D0032872D16F
:103D30000AE071B380296ED02046FFF7B5FD8021DF
:103D40002046FFF7B1FD6AE0508838B931B18029CB
:103D500004D0D08810B92046FFF7A6FD2046FFF713
:103D6000D5FA5CE094F89C020228E2D0032852D1F4
:103D7000508898BB4806F1D02046FFF7FEFBEDE7E0
:103D8000FFE794F89C020026022803D0032842D1C2
:103D900012E040E009B180293DD1080601F07F0022
:103DA00000EB800004EB800101D5143101E001F546
:103DB000AA7102220E602AE0080601F00F0000EB53
:103DC000800004EB80000AD5806920B301F07F00F9
:103DD00000EB800004EB800514350BE01FE0D0F809
:103DE0005801C0B101F07F0000EB800004EB8005BA
:103DF00005F5AA7541B1802906D02046FFF7B8FC29
:103E000010B10120286000E02E60022229462046E1
:103E1000FFF76FFA03E011462046FFF754FA3846E1
:103E2000BDE8F08170B5054608780C4610F06000DA
:103E300003D0202801D0402816D195F89C020128F3
:103E400003D0022801D003280ED1207901280BD8F5
:103E5000D5F8B402826828469047E188014306D12C
:103E60002846FFF753FA02E02846FFF72CFA002015
:103E700070BD704700487047581700202DE9F04783
:103E80000C78002630F8243048F68F121340CA7898
:103E9000002A7DD0012A7CD0022A02D0032A7FD0BA
:103EA000012648F28002134320F824300D7830F8C0
:103EB000254048F68F731C402C43144320F82540BE
:103EC0000D7B48F2C00C48F6BF744CF280074BF6ED
:103ED0008F79EDB391F80080C24630F8285048F24F
:103EE00080181D4045EA080520F82A50B0F85050C7
:103EF00091F80080054405EB0815B1F8088028F01A
:103F00000108A5F80084B0F8505091F800800544ED
:103F100005EB0815B1F80A8028F00108A5F8088417
:103F20004D78002D0D7830F825804FEA48487DD037
:103F3000B8F1000F07DA30F8258008EA030848EAEC
:103F4000070820F825800F7830F827506D0600E02C
:103F50002CE006D530F827501D4045EA0C0520F826
:103F60002750CB780D78012B30F8253003EA040375
:103F700001D083F02003134320F825300B7830F86C
:103F8000231001EA0901114320F82310304602E012
:103F900003E008E004E0BDE8F08743F4007380E745
:103FA00043F4C0637DE743F480637AE74D782DB333
:103FB000B0F850500F78054405EB0715CF8827F06F
:103FC0000107A5F800740F7830F827506D0606D564
:103FD00030F827501D4045EA0C0520F82750CB78D3
:103FE000012B06D00B7830F82310214081F02001FE
:103FF000C9E70B7830F823102140C4E7B0F85040EF
:104000000D78044404EB0514CD8825F00105A4F8CF
:104010000854B0F850400D78044404EB05140D69C1
:1040200004F20C4475B13E2D14D800E030E04FEAA4
:10403000550CED0701D00CF1010C4FF6FF7505EAA8
:104040008C2511E0258825F4F8452580258845F440
:10405000004509E04FEA551CED0601D1ACF1010C19
:104060004FF4004545EA8C2525800D7830F8254031
:10407000640405D530F825401C403C4320F8254019
:104080000B7830F8231001EA090181F440517AE7F6
:10409000B8F1000F07DA30F8258008EA030848EA8B
:1040A000070820F825800F7830F827506D0606D5D0
:1040B00030F827501D4045EA0C0520F827500D78B0
:1040C00030F8253003EA090383F44053134320F802
:1040D00025308EE7002070472DE9F04391F80C80E1
:1040E0004F780A7848F6BF7C4BF68F7948F2800308
:1040F00048F2C0054CF2800648F68F74B8F1000F04
:1041000028D0002F30F822704FEA474748D0002FC0
:1041100005DA30F822702740374320F822700A78F9
:1041200030F822707F0605D530F8227027402F43E3
:1041300020F822700D7830F825202240324320F8F4
:1041400025200C7830F8242002EA0C021A4320F8CB
:1041500024201AE07FB130F82260760605D530F8C9
:10416000226026402E4320F822600A7830F8221080
:1041700001EA0C010EE030F822506D0405D530F84C
:1041800022502540354320F822500A7830F822107A
:1041900001EA0901194320F822100020BDE8F0834C
:1041A000002F05DA30F822702740374320F82270BC
:1041B0000A7830F82260760605D530F8226026406D
:1041C0002E4320F822600E7830F8262022402A4321
:1041D00020F826200C7830F8242002EA09021A433D
:1041E00020F82420C1E700207047002070470121FB
:1041F00020F8401F0021018081800182084670471D
:1042000030F8401F21F43F4101800020704700201A
:10421000704730B50A7BB2BB4A7848F68F7548F2D2
:104220008004C2B10B7830F82320520607D530F84D
:1042300023202A4048F2C0052A4320F82320CA78C8
:10424000012A20D00A7830F8221048F6BF731940AE
:1042500081F0200114E00A7830F822305B0407D5A1
:1042600030F822302B404CF280052B4320F82230CE
:104270000A7830F822104BF68F73194081F44051C0
:10428000214320F82210002030BD10B54A7809786B
:10429000002A48F2800330F8212005D048F6BF7488
:1042A000224082F0100204E04BF68F74224082F428
:1042B00080521A4320F82120002010BD2DE9F0473C
:1042C0000E464B78097B04464FF0000948F68F7282
:1042D00048F2800A4FF6FF774FF40048012B09D0CF
:1042E00000296ED0F07802286CD001286BD0012014
:1042F000BDE8F087B5693069854200D90546C9B186
:10430000F17848F28013022923D0317834F8210063
:104310001040184324F82100306A401B3062307886
:1043200034F82010490671787ED500297DD0012906
:104330007CD03FE1ABB2F2882046716900F0FAFA16
:10434000B4F850003178204400EB0110A0F8045478
:10435000EAE0316A81426AD9317834F821001040AC
:10436000184324F82100306A401B3062307834F85A
:104370002010490671786CD511B1012924D02AE0AA
:10438000B4F85010214401EB001000F20C404DB184
:104390003E2D0FD86908EA0700D0491C07EA8121A1
:1043A000018018E0018821F4F8410180018841F47E
:1043B0000041F5E76909EA0600D1491E48EA812172
:1043C000EEE79CE1BCE126E2B4F85020111901EBC4
:1043D0000010A0F80C547289ABB22046716900F04D
:1043E000A9FA7069284470613169306A884202D93B
:1043F000401B306202E00546C6F820907078002825
:104400007CD1B4F850003178204400EB011000F268
:1044100004406DB13E2D13D86908EA0700D0491C4D
:1044200007EA8121018012E001E19BE0BBE084E02A
:10443000018821F4F8410180018841F40041F1E74D
:104440006909EA0600D1491E48EA8121EAE7328972
:1044500065E011B1012921D027E0B4F850102144C2
:1044600001EB001000F204404DB13E2D0FD8690859
:10447000EA0700D0491C07EA8121018015E0018884
:1044800021F4F8410180018841F40041F5E7690910
:10449000EA0600D1491E48EA8121EEE7B4F850103F
:1044A000214401EB0010A0F804543289ABB220463D
:1044B000716900F03FFA7069284470613169306AAF
:1044C000884202D9401B306202E00546C6F82090BF
:1044D000707800287ED1B4F850003178204400EB89
:1044E000011000F20C4055B13E2D10D86908EA07C2
:1044F00000D0491C07EA812101800FE072E00188A9
:1045000021F4F8410180018841F40041F4E7690990
:10451000EA0600D1491E48EA8121EDE77289ABB273
:104520002046716900F006FA317834F8210048F627
:10453000BF72104080F03000C0E1327834F82200C1
:1045400048F68F63184040EA0A0024F82200B4F8C5
:1045500050003278204400EB02108BB2A0F80434F3
:104560003289DDE7B4F85010214401EB001000F26D
:104570000C404DB13E2D0FD86908EA0700D0491C08
:1045800007EA8121018015E0018821F4F8410180CA
:10459000018841F40041F5E76909EA0600D1491EA6
:1045A00048EA8121EEE7B4F85020111901EB001020
:1045B000A0F80C547289ABB22046716900F0BAF9C8
:1045C0007069284470613169306A884203D9401BA0
:1045D000306203E06EE00546C6F82090002DA3D0BF
:1045E000707858B101287FF41EAFB4F850003178CC
:1045F000204400EB0110A0F8045428E7B4F8500060
:104600003178204400EB011101F204413E2D06D81F
:104610006808EA0700D0401C07EA802005E0680926
:10462000EA0600D1401E48EA802008800FE711B159
:10463000012921D027E0B4F85010214401EB0010EB
:1046400000F204404DB13E2D0FD86908EA0700D0B2
:10465000491C07EA8121018015E0018821F4F84115
:104660000180018841F40041F5E76909EA0600D1BB
:10467000491E48EA8121EEE7B4F85010214401EBCD
:104680000010A0F804543289ABB22046716900F0E2
:1046900051F97069284470613169306A884202D9E1
:1046A000401B306202E00546C6F82090002D96D0EF
:1046B000707858B101287FF420AFB4F85010081971
:1046C000317800EB0110A0F80C5427E7B4F8500043
:1046D0003178204400EB011101F20C413E2D06D847
:1046E0006808EA0700D0401C07EA802005E0680956
:1046F000EA0600D1401E48EA802008800EE7B16932
:104700003069814202D9091AB161B5E00846C6F89C
:104710001890B1E0088820F4F8400880088840F438
:1047200000400BE03E2875D84208C00700D0521C5C
:1047300007EA822002E000BF48EA82200880B5E054
:1047400093B9B4F850003178204400EB011031697E
:1047500000F2044069B13E2913D84B08C90700D0C4
:104760005B1C07EA83210180707888B1012832D070
:104770003AE0018821F4F8410180018841F40041C8
:10478000F1E74B09C90600D15B1E48EA8321EAE73D
:10479000B4F850003178204400EB0110316900F288
:1047A0000C4049B13E290FD84B08C90700D05B1C0B
:1047B00007EA8321018017E0018821F4F841018094
:1047C000018841F40041F5E74B09C90600D15B1EA1
:1047D00048EA8321EEE7B4F850100819317800EB6D
:1047E0000110318AA0F80C14F069A8B3317834F8BC
:1047F0002100430401D5430603D444F24003184288
:1048000054D134F82100104048F2C002104324F87B
:1048100021004BE03CE0B1693069814202D9091ABC
:10482000B16102E00846C6F818908BB9B4F8501090
:104830003278214401EB021101F2044168B13E28B3
:1048400013D84208C30700D0521C07EA82220A800C
:10485000717889B1012921D028E00A8822F4F84230
:104860000A800A8842F40042F1E74209C30600D1F7
:10487000521E48EA8222EAE7B4F850103278214406
:1048800001EB021101F20C4100287FF44BAF41E72C
:104890004209C0067FF450AF521E4DE7B4F85020D5
:1048A0001119327801EB0211A1F80C04317834F8B7
:1048B00021004BF68F72104080F4405040EA0A000D
:1048C00024F82100002013E50021A0F844104FF443
:1048D0003F41A0F8401000207047002070470020A2
:1048E000704700000148FCF7D1BB0000C82700203A
:1048F000B0F844007047000010B500EB42005C08BF
:1049000000F5806009D000BF30F8042B01F8012BBE
:10491000120A01F8012B641EF6D1DA0701D00088D3
:10492000087010BD0020704711B98021A0F84C100C
:104930000020704710B55B1C00EB42005B0800F5DF
:10494000806009D011F8012B11F8014B42EA0422D2
:1049500020F8042B5B1EF5D110BD00000248012198
:104960000170007870470000B601002001207047F8
:104970000020704702480121017000787047000054
:10498000B601002000207047FEE7000038B5002087
:104990000F4D8DF8000002464FF480542146284602
:1049A000FBF77AFF4CF2503301220A490A48FDF71F
:1049B00084F94FF47A73012269460748FDF7D0F86D
:1049C000012221462846FBF767FF9DF8000038BD0D
:1049D000000C01409A000020800400202DE9F84FCF
:1049E0000646002002E000BF00F580708842FBD937
:1049F000451A954200D915460C468F184FF0020B08
:104A00008DF800B0200C8DF80100200A8DF802000E
:104A10008DF80340FFF7BAFFC007FBD100F02EF876
:104A2000DFF850904FF48058002241464846FBF78B
:104A300033FF41F2883A5346042269460E48FDF797
:104A40003CF9AAB2534631460B48FDF736F901222C
:104A500041464846FBF720FF2C4404F580702E4465
:104A6000B84201D93D1B01E04FF48075BC42C7D369
:104A7000BDE8F88F000C01408004002070B50B4D9C
:104A80004FF48054002221462846FBF705FF4CF2E4
:104A90005033012206490748FDF70FF92146284601
:104AA000BDE870400122FBF7F7BE0000000C01409A
:104AB00099000020800400200907090E002804DB6B
:104AC00000F1E02080F80014704700F00F0000F1C2
:104AD000E02080F8141D704702E008C8121F08C1CA
:104AE000002AFAD170477047002001E001C1121F6F
:104AF000002AFBD17047FBF7E3FEFEF733FBFDF71F
:104B0000B9FCFDF74BFDFDF745FCFDF76DFDFDF72D
:104B10008FFDFDF75DFCFDF7A7FD4FF4FA70FBF785
:104B200095FDFDF763FC00F00EF8FEE7014600205E
:104B3000842900D0C81C704710B500B9012000F0CE
:104B4000BFFB002010BD10B500F006FC002010BD1A
:104B50007FB50D4604464169B0F9080081B1A169ED
:104B600071B1FFF7E3FFD4E905128DE80700D4E93E
:104B700000102B46226900F09EFE039004B070BD29
:104B8000FFF7D4FF03A9CDE90001208A2B4682B2AA
:104B9000D4E9001000F062FE012801D00020EDE70A
:104BA0000398EBE72DE9F041184C0F46054666697E
:104BB0002068001D00F096FA38B9206890F82C1093
:104BC00001208840A1698143A161681C07D137B1E8
:104BD0002168BDE8F0410E48091D00F0C7BA206801
:104BE0003544B5424560216805D2A068BDE8F04172
:104BF000091D00F0A3BA6068091D00F09FFA206B40
:104C0000854200D22563BDE8F08100001800002035
:104C1000800600202DE9F041054600F0B3FA2E4C45
:104C20002069401C206120682C4F10B1E06940B31E
:104C30002DE025602069012829D1002606EB860099
:104C400007EB800000F06CFA761C072EF6D32348A1
:104C50008C3000F065FA2148A03000F061FA1F485E
:104C6000B43000F05DFA1D48C83000F059FA1B4816
:104C7000DC3000F055FA19488C3060601430A060C8
:104C800005E02068E96AC06A884200D82560E06AC9
:104C9000401CE062E96A0120A26988401043A061DB
:104CA00001EB810007EB8000291D00F05FFA00F0A6
:104CB00089FAE06900280CD02068E96AC06A884255
:104CC00007D207494FF080500860BFF34F8FBFF302
:104CD0006F8FBDE8F081000018000020A4050020BF
:104CE00004ED00E02DE9F041856B174604460026EF
:104CF000026C82B1C7B1E068FBF782FAE168206C10
:104D0000091AE1602268914202D26168081AE060E3
:104D1000022F16D017E02068A8B9606800F068FE7E
:104D20000646002060600EE0A068FBF769FA216C7F
:104D3000A0680844A0606168884204D32068A0602D
:104D400001E005B16D1E6D1CA5633046BDE8F08124
:104D500010B5044690F8510058B101280CD0022833
:104D60000FD0502080F31188BFF34F8FBFF36F8FA8
:104D7000FEE7206B00F03AFA2046BDE8104000F054
:104D800035BA10BD0F4840F6FF31420705D0C01DAF
:104D90000C4A20F00700821A891A0B4A00230144AA
:104DA000C2E900030839103A21F0070111604B6095
:104DB0000B600B1AC0E9001393604FF00040536082
:104DC000D06070479406002064000020144E154CFB
:104DD000A6F1C8074FF08058DFF84C9012E000BFF2
:104DE00000F0D0F9F068C568281D00F07BF9206953
:104DF000401E2061E068401EE06000F0E3F92846B4
:104E0000FFF7A6FFE0680028EAD138680128F9D941
:104E1000C9F80080BFF34F8FBFF36F8FF2E7000038
:104E20006C0600201800002004ED00E0002807D0E8
:104E30000021416001600B460A46C16000F0D6BB0C
:104E400070470346009829B10260C0E90F31012183
:104E500000F088BB0060F8E72DE9F0479A46DDE9ED
:104E6000098481466FF00303206B03EB8202104438
:104E7000089D20F00706700707D0502080F31188A6
:104E8000BFF34F8FBFF36F8FFEE723180A5C83F8E1
:104E900034200A5C12B1401C1028F6D3002784F895
:104EA0004370072D00D30625E562C4E91157201D84
:104EB00000F041F904F1180000F03DF92461C5F15A
:104EC00007006462A061E76484F850705246494666
:104ED000304600F0F5F82060B8F1000F01D0C8F8B6
:104EE0000040BDE8F087000030B5114900E01146F0
:104EF0000A688242FBD34B685C18844203D1406845
:104F000018444860084643681C18944209D1084C6C
:104F1000103C2468A24209D052681A4442600A68D0
:104F200012680260814200D0086030BD0460F9E779
:104F30006400002006484168096829B14168C968D1
:104F4000C9684968016370474FF0FF31FAE7000014
:104F50001800002008484068401C4FF0500080F3C3
:104F6000118804D0BFF34F8FBFF36F8FFEE7BFF3FD
:104F70004F8FBFF36F8FFEE76C0000202DE9F041EB
:104F8000044600F0FFF894F9455004F1240609E0C6
:104F9000606A48B1304600F077FD08B100F0BEF914
:104FA0006D1E6DB2002DF3DC4FF0FF3684F84560C6
:104FB00000F008F900F0E6F894F9445004F1100705
:104FC00009E0206948B1384600F05EFD08B100F004
:104FD000A5F96D1E6DB2002DF3DC84F84460BDE8C8
:104FE000F04100F0EFB800002DE9F0410546002740
:104FF00000F0E8F9314E306808B9FFF7C3FEF068F9
:1050000005424BD1C5B3083568070ED005F007003F
:10501000C0F108000544680707D0502080F31188CC
:10502000BFF34F8FBFF36F8FFEE72DB370688542DC
:1050300034D82248103001460C6801E020460C4666
:105040006168A94202D221680029F7D131688C42F7
:1050500024D007682168016060680837411B102967
:105060000FD96019420708D0502080F31188BFF390
:105070004F8FBFF36F8FFEE710E041606560FFF771
:1050800033FF61687068401A7060B268904200D265
:10509000B060F06801430020C4E9000100F02EFD7B
:1050A000780707D0502080F31188BFF34F8FBFF3EC
:1050B0006F8FFEE73846BDE8F08100005400002005
:1050C00010B5031F4FF080741C601B1F21F00101FD
:1050D0001960191F024B0B60143940380A6010BD6B
:1050E000554F0008D0E9013201699A60D0E90123E7
:1050F0005A604A68824201D182684A600022026195
:105100000868401E0860086870470000034B036091
:1051100003F154000860802010607047D401002023
:1051200000F108014FF0FF32C0E90112C1600161D6
:1051300000210160704700210161704730B50B68A4
:105140005A1C02D000F1080202E0026904E0224683
:10515000546825689D42FAD953684B6099608A600B
:10516000516008610168491C016030BD42684A60B5
:1051700093688B6093685960916008610168491C6D
:1051800001607047502080F31188BFF34F8FBFF349
:105190006F8F0A494868401C486001280CD10848B4
:1051A000006810F0FF0F07D0502080F31188BFF384
:1051B0004F8FBFF36F8FFEE7704700006C00002039
:1051C00004ED00E00849486828B1401E486001D15C
:1051D00080F311887047502080F31188BFF34F8F00
:1051E000BFF36F8FFEE700006C00002070B5002851
:1051F00027D0144DA0F108046168E868014207D186
:10520000502080F31188BFF34F8FBFF36F8FFEE7FD
:1052100022683AB1502080F31188BFF34F8FBFF35B
:105220006F8FFEE78143616000F0CCF860686968C9
:10523000084468602046FFF757FEBDE8704000F064
:105240005DBC70BD540000204FF0E02000210161E2
:10525000816105494FF47A720968B1FBF2F1491E88
:1052600041610721016170471400002010B5FAF771
:10527000B1FF114910280ED300F1E02090F8F0039F
:105280000A78904207D2502080F31188BFF34F8FE5
:10529000BFF36F8FFEE709480068896800F4E0609B
:1052A000884207D9502080F31188BFF34F8FBFF396
:1052B0006F8FFEE710BD00006C0000200CED00E0D9
:1052C00010B5020014D00F48806B38B1502080F325
:1052D0001188BFF34F8FBFF36F8FFEE700F072F8B6
:1052E00000211046FFF75EFC00F008FC002807D103
:1052F00005494FF080500860BFF34F8FBFF36F8FA9
:1053000010BD00001800002004ED00E002498A6A88
:10531000026049694160704718000020014901207E
:10532000486270471800002010B50C4650B109497A
:1053300009681831FFF702FF2046BDE8104001213F
:10534000FFF730BC502080F31188BFF34F8FBFF3BD
:105350006F8FFEE71800002010B586B0002403947C
:1053600005AA04A903A80494FFF7D0FEDDE9030110
:105370000094CDE9011000230EA11048059A00F019
:105380009AFA0F490028486311D0502080F3118801
:10539000BFF34F8FBFF36F8F4FF0FF3008630120D3
:1053A000C8614C6106B0BDE8104000F041B806B0DD
:1053B00010BD000049444C4500000000CD4D0008E0
:1053C000180000200248816B491C8163704700006F
:1053D000180000201448816B11B10121416270470F
:1053E000002141628169B1FA81F1C1F11F0101EB34
:1053F00081020E4951F822306BB101EB820101F1BB
:1054000008034A6852684A609A4201D152684A6069
:10541000D16801607047502080F31188BFF34F8F2F
:10542000BFF36F8FFEE7000018000020A4050020E6
:105430001CB5264908780190FF20087008788DF87F
:1054400000009DF800009DF8002000F0F000904260
:1054500007D0502080F31188BFF34F8FBFF36F8FB9
:10546000FEE79DF800001A4B00F05000187007206E
:10547000986005E09DF8002052008DF80020401E45
:105480009DF800201206F5D49860032807D050201C
:1054900080F31188BFF34F8FBFF36F8FFEE74FF498
:1054A00040709860019808700A48016841F47001E2
:1054B0000160016841F070410160FFF7C5FE002006
:1054C0005860FAF751FE00201CBD000000E400E027
:1054D0006C00002020ED00E010B5502080F3118812
:1054E000BFF34F8FBFF36F8F00F01EFA18B104495E
:1054F0004FF080500860002080F3118810BD00003C
:1055000004ED00E010B502460021012000F005F88E
:105510000446FFF78BFC204610BDF8B517460E4633
:10552000050014D0DEB105FB06F04830FFF75CFD46
:1055300004000AD0002084F8460004F148023B46EB
:10554000314628460094FFF77CFC2046F8BD5020E9
:1055500080F31188BFF34F8FBFF36F8FFEE70020FA
:10556000E3E7000070B50D46040025D0FFF70AFE02
:10557000D4E90F20216802FB001161600021A163C2
:105580002168A1600A46D4E90F01401E00FB0121F9
:10559000E16021464FF0FF3001F8440F487004F1FC
:1055A00010008DB1FFF7BCFD04F12400FFF7B8FD3A
:1055B000FFF708FE012070BD502080F31188BFF373
:1055C0004F8FBFF36F8FFEE721690029F0D000F005
:1055D0005BFA0028ECD004494FF080500860BFF31C
:1055E0004F8FBFF36F8FE3E704ED00E02DE9FF4736
:1055F00082B01D468A464FF00008040003D0BAF17D
:10560000000F08D011E0502080F31188BFF34F8FB6
:10561000BFF36F8FFEE7206C38B1502080F3118804
:10562000BFF34F8FBFF36F8FFEE7022D0AD1E06B00
:10563000012807D0502080F31188BFF34F8FBFF3AC
:105640006F8FFEE700F062F93F4F4FF000094FF017
:10565000805648B9049838B1502080F31188BFF3C0
:105660004F8FBFF36F8FFEE7FFF78CFDA06BE16BF1
:10567000884207D3022D05D00498D0B1B8F1000FAD
:105680001AD01EE02A4651462046FFF72BFB616ADE
:1056900019B104F1240000F0F7F920B13E60BFF326
:1056A0004F8FBFF36F8FFFF78DFD012006B0BDE870
:1056B000F087FFF787FD22E06846FFF727FE4FF0EF
:1056C0000108FFF77FFDFFF77DFEFFF75BFD94F913
:1056D0004400401C01D184F8449094F94500401CDA
:1056E00001D184F84590FFF76DFD04A9684600F0EC
:1056F0007BF830B12046FFF741FC00F0FFF90020B5
:10570000D4E7FFF73FFDA06BE16B884213D1FFF7B1
:1057100059FD04F110000499FFF706FE2046FFF73B
:105720002DFC00F0EBF900289ED13E60BFF34F8FB7
:10573000BFF36F8F98E7FFF745FD2046FFF71EFC8C
:1057400000F0DCF990E7000004ED00E070B50E46D3
:10575000040009D0206C78B1502080F31188BFF389
:105760004F8FBFF36F8FFEE7502080F31188BFF398
:105770004F8FBFF36F8FFEE7206848B9606838B17C
:10578000502080F31188BFF34F8FBFF36F8FFEE778
:10579000FFF76CFD5020EFF3118580F31188BFF304
:1057A0004F8FBFF36F8FA16BE06B884218D994F9CC
:1057B0004500491CA163411C04D0401C84F84500ED
:1057C00001200EE0606A0028FAD004F1240000F005
:1057D0005BF90028F4D0002EF2D001203060EFE712
:1057E000002085F3118870BD2DE9F0410C460500BD
:1057F00011D0C4B1FFF7C6FC174B5A696E68206818
:10580000911B471C17D02F689B6A9F4219D0964264
:1058100017D8012410E0502080F31188BFF34F8F78
:10582000BFF36F8FFEE7502080F31188BFF34F8FD7
:10583000BFF36F8FFEE70024FFF7C4FC2046BDE8EE
:10584000F081884205D9401A20602846FFF75EFDA6
:10585000F1E700202060DCE7180000202DE9FF5F61
:105860008346DDE90E87994616468A469000FFF783
:10587000BBFB05001CD05420FFF7B6FB040014D07E
:105880000020256384F85100CDE90240CDE900876E
:105890004B46324651465846FFF7DEFA2046FFF7A0
:1058A000B9F9012004B0BDE8F09F2846FFF79EFC3F
:1058B0004FF0FF30F6E7F0B585B0DDE90B640A9DE7
:1058C000A6B1DCB1542700972663022684F8516004
:1058D000002604AFCDE90246CDE90057FFF7BCFA38
:1058E0002046FFF797F9049805B0F0BD502080F3EB
:1058F0001188BFF34F8FBFF36F8FFEE7502080F307
:105900001188BFF34F8FBFF36F8FFEE70548C16962
:1059100019B1806B18B10020704701207047022038
:1059200070470000180000202DE9F0412E4C0027A0
:10593000A06B40B1206A401C2062606A00B1012760
:105940003846BDE8F0816669761C666113D16068EF
:10595000006838B1502080F31188BFF34F8FBFF338
:105960006F8FFEE76068A1686160A060A06A401C5C
:10597000A062FFF7DFFA206BDFF87080864209D360
:105980006068006880B16068C068C5686868864201
:105990000DD220632068C06A00EB800158F8210016
:1059A0000128CAD90127C8E74FF0FF30F1E7281DC9
:1059B000FFF798FBA86A18B105F11800FFF792FBF2
:1059C000E86A0121A26981401143A16100EB8001D5
:1059D00008EB8100291DFFF7C9FBE86A2168C96A45
:1059E0008842CDD30127CBE718000020A405002072
:1059F00070B504004FF0000140D0214D286884426A
:105A000007D0502080F31188BFF34F8FBFF36F8F03
:105A1000FEE7A06C38B1401EA064636CE26A9A4253
:105A20002CD040B12AE0502080F31188BFF34F8F73
:105A3000BFF36F8FFEE7201DFFF754FB114A0121D2
:105A400050B9E06A00EB800352F8233023B9AB6908
:105A500001FA00F08343AB61606CE062C0F10700C3
:105A6000A061E06AAB6981401943A96100EB800045
:105A700002EB8000211DFFF779FB0121084670BD74
:105A800018000020A40500202DE9F041C068C4687A
:105A9000ACB104F118000746FFF724FB154DA86BC5
:105AA0000126A0B139461448FFF760FBE06A296877
:105AB000C96A88421CD901206E62BDE8F08150207D
:105AC00080F31188BFF34F8FBFF36F8FFEE7201D68
:105AD000FFF708FBE16AAA6906FA01F01043A86122
