:020000040800F2
:10000000E0060020DD010008AF1800088316000894
:10001000AD180008EB020008CD1B0008000000002E
:100020000000000000000000000000004501000882
:10003000050300080000000089010008391A0008C3
:10004000F7010008F7010008F7010008F7010008B0
:10005000F7010008F7010008F7010008F7010008A0
:10006000F7010008070300080D030008F701000866
:10007000ED020008F9020008F7010008F701000886
:10008000F7010008F7010008F7010008F701000870
:10009000F7010008F7010008F7010008F701000860
:1000A000F7010008F7010008F7010008F701000850
:1000B000F7010008F7010008F7010008F701000840
:1000C000F7010008F7010008F7010008F701000830
:1000D000F7010008F7010008F7010008F701000820
:1000E000F7010008F7010008F7010008F701000810
:1000F000F7010008F7010008F7010008F701000800
:10010000F7010008F7010008F7010008F7010008EF
:10011000F7010008F7010008F7010008F7010008DF
:10012000F7010008F7010008F7010008F7010008CF
:10013000DFF80CD000F0B8F800480047991F00081D
:10014000E0060020224B19680868B0E8F00F80F341
:100150000988BFF36F8F4FF0000080F311884EF0D5
:100160000D0E70470000000006480068006880F32C
:10017000088862B661B6BFF34F8FBFF36F8F00DFA1
:1001800000BF00BF08ED00E0EFF30980BFF36F8F01
:100190000F4B1A6820E9F00F106008B54FF05000BF
:1001A00080F31188BFF34F8FBFF36F8F01F0BCFF57
:1001B0004FF0000080F31188BDE808401968086816
:1001C000B0E8F00F80F30988BFF36F8F704700BF6E
:1001D00018000020EFF305807047000006488047B4
:1001E00006480047FEE7FEE7FEE7FEE7FEE7FEE71C
:1001F000FEE7FEE7FEE7FEE7AF1A00083101000860
:10020000202A04DB203A21FA02F00021704721FA6B
:1002100002F3D040C2F120029140084319467047D2
:10022000D2B201E000F8012B491EFBD27047002238
:10023000F6E710B513460A4604461946FFF7F0FFE5
:10024000204610BD2DE9F05F0546002092469B46F2
:1002500088460646814640241BE0284641464746DC
:100260002246FFF7CDFF53465A46C01A914110D39C
:1002700011461846224600F029F82D1A67EB0108AE
:100280004F4622460120002100F020F817EB00091C
:100290004E41201EA4F10104DFDC484631462A46C7
:1002A0004346BDE8F09F0000064C074D06E0E068BD
:1002B00040F0010394E8070098471034AC42F6D3AD
:1002C000FFF73AFFBC230008DC230008202A04DBE8
:1002D000203A00FA02F1002070479140C2F1200359
:1002E00020FA03F3194390407047FEE7014800F0FD
:1002F00013B8000068010020014800F00DB80000AC
:10030000240100207047082000F086B9102000F07A
:1003100083B972B6FEE700002DE9F05FC16B0A6891
:1003200001680B68046C4FF0040808FA04F8844D67
:10033000844E854FDFF814C2DFF81492DFF814A260
:10034000DFF814B2DFF814E218EA020F65D05FEAB2
:10035000437862D50A68920603D40A6822F0040240
:100360000A60DFF8F0814FF48062016808F1140838
:1003700013011402414524D9A9420DD0B1420FD036
:10038000B9421AD0614515D0494515D0514501D122
:10039000120312E0594501D104220EE0714501D14A
:1003A00040220AE06D4D1435A94206D06B4A28322E
:1003B000914201D11A4600E022466749091F0A60AE
:1003C00029E0A94213D0B14215D0B94220D06145ED
:1003D0001BD049451BD0514502D14FF4800217E094
:1003E000414502D14FF0806212E0594501D104220B
:1003F0000EE0714501D140220AE0584D1435A94262
:1004000006D0564A2832914201D11A4600E02246CF
:100410004B4908394A60C16A71E04FF0020808FA96
:1004200004F818EA020F70D05FEA83786DD50A6885
:10043000920606D40A6822F00A020A60012180F8B6
:100440002110DFF810814FF40072016808F11408E0
:1004500013011402414524D9A9420DD0B1420FD055
:10046000B9421AD0614515D0494515D0514501D141
:10047000120312E0594501D102220EE0714501D16B
:1004800020220AE0354D1435A94206D0334A2832DD
:10049000914201D11A4600E022462F49091F0A6005
:1004A00029E0A94213D0B14215D0B94220D061450C
:1004B0001BD049451BD0514502D14FF4001217E023
:1004C000414502D14FF0007212E0594501D102229C
:1004D0000EE0714501D120220AE0204D1435A942D9
:1004E00006D01E4A2832914201D11A4600E0224627
:1004F000134908394A60002180F82010816A0029D8
:100500001CD0BDE8F05F0847FFE70825A54015426D
:1005100014D01A0712D50A6822F00E020A6090F869
:100520004020C36B012101FA02F25A60816380F816
:100530002110002180F82010016BE0E7BDE8F09F5A
:10054000080002401C00024030000240440002400B
:10055000580002406C000240080402401C040240A3
:1005600030B560B11A4B026814219A4209D2194B76
:100570001344B3FBF1F18900016417490AE001203B
:1005800030BD134B5B421344B3FBF1F189000164AE
:100590000F490839C163022180F82110136843F61E
:1005A000F0718B43F0E901142143D0E902452C435B
:1005B0002143046921434469214384692143194348
:1005C000116000214163012242770177084630BD66
:1005D00008040240F8FFFDBF0000024070B5044669
:1005E00000F028F90546601C02D004480078044455
:1005F00000F020F9401BA042FAD370BD0800002093
:10060000044A00210828116003D11146506801F006
:10061000CFBD704760000020044910B50A6802424F
:1006200002D00860FFF7ECFF10BD00001404014089
:100630002DE9F84FDFF8C891002409F1040A0AF106
:10064000040B23460F270BF1040ED1E00125A54032
:1006500006EA0502AA4276D1DFF8A8C14E68A6EBE9
:100660000C0866452BD00DDC032E34D005DC36B3E8
:10067000012E19D0022E2FD11BE0112E16D0122ED2
:100680002AD119E0B8F5881F19D006DCB8F5803FEB
:1006900015D0B8F5801F1FD111E0B8F5001F0ED09E
:1006A000B8F5041F18D10AE0CB6815E0CB681B1D14
:1006B00012E0CB6808330FE0CB680C330CE08B689A
:1006C0002BB1012B4FF0080303D0456104E0042354
:1006D00002E0056100E00023FF2A01D8064601E0A0
:1006E00000F104064FEA840501D9A5F12005D6F8EA
:1006F000008007FA05FC28EA0C0803FA05F548EA29
:100700000508C6F800804D68ED0070D53E4DAE6915
:1007100046F00106AE61AD6924F0030605F001055F
:1007200000953A4D06EB050CDCF80850A607360F8D
:1007300007FA06F825EA0805DFF8D480404503D11A
:100740004FF0000825E052E0DFF8C880404502D1B4
:100750004FF001081DE0DFF8C080404502D14FF0A6
:10076000020816E0DFF8B480404502D14FF00308DC
:100770000FE0DFF8AC80404502D14FF0040808E0FC
:10078000DFF8A080404502D14FF0050801E04FF0AE
:10079000060808FA06F848EA0508CCF808804D680B
:1007A000D9F80060ED034D4601D5164300E09643AD
:1007B0002E604D68DAF80060AD03554601D516434A
:1007C00000E096432E604D68DBF80060ED025D4668
:1007D00001D5164300E096432E604D68DEF80060B8
:1007E000AD02754601D5164300E096432E60641CA9
:1007F0000A681646E2407FF429AFBDE8F88F000092
:1008000000040140000011100010024000000140EF
:1008100000080140000C014000100140001401409C
:1008200000180140001C01400AB101617047090431
:10083000FBE70000014880687047000008000020C6
:1008400002488168027811448160704708000020E6
:10085000074810B5016841F010010160032000F065
:100860007BF80F2000F006F800F024F8002010BDFF
:100870000020024070B50D4D04464FF47A7128787F
:10088000B1FBF0F00A490968B1FBF0F000F023FE7B
:1008900048B9102C07D200222146501E00F03CF827
:1008A00000206C6070BD012070BD000008000020B9
:1008B000140000200F4808B5816941F001018161F1
:1008C000816901F001010091C16941F08051C1616C
:1008D000C069002200F0805000900F21901E00F0AF
:1008E0001BF80548416821F0E06141F0007141606A
:1008F00008BD00000010024000000140002809DB94
:1009000000F01F02012191404009800000F1E02029
:10091000C0F8001170470000F0B40E4B1B680C4685
:10092000C3F30223C3F10705042D00D90425191DC3
:10093000072901D2002300E0DB1E012606FA05F19B
:10094000491E214099409E40761E16403143F0BC1E
:1009500001F0D8B90CED00E0064900F00702086884
:100960004FF6FF03184040EA0220034A1043086094
:10097000704700000CED00E00000FA052DE9F0479B
:100980000F46050061D0434E306800F00700B842C2
:1009900009D2306820F0070038433060306800F03A
:1009A0000700B84251D128683B4C810712D5400757
:1009B00003D5606840F4E06060602878000703D5E4
:1009C000606840F4605060606068A96820F0F000E2
:1009D000084360602878C00728D06868012810D0D4
:1009E0002168022810D0890700292EDA616821F0D9
:1009F000030101436160FFF71DFF804641F2883922
:100A00000DE021688903EFE78901EDE7FFF712FFA9
:100A1000A0EB0801494502D90320BDE8F0876068D2
:100A2000696800F00C00B0EB810FEFD1306800F086
:100A30000700B8420BD9306820F007003843306017
:100A4000306800F00700B84201D00120E5E72878BF
:100A5000400705D56068E96820F4E06008436060FD
:100A60002878000706D56068296920F4605040EABC
:100A7000C100606000F038F86168084AC1F30311F2
:100A8000515CC8400649086006480068FFF7F2FE5E
:100A90000020C2E70020024000100240A42300080A
:100AA000140000200C000020044805490068496833
:100AB000044AC1F30221515CC84070471400002071
:100AC00000100240B4230008044805490068496842
:100AD000044AC1F3C221515CC84070471400002091
:100AE00000100240B423000812A185B00FC98DE8A0
:100AF0000F0014A0144A006804905168134801F0D4
:100B00000C03042B10D0082B0ED1C1F38343C9036F
:100B10001DF803000AD5516804AAC1F34041515C95
:100B20000A4A5043B0FBF1F005B07047084948430A
:100B3000FAE7000002030405060708090A0B0C0D7A
:100B40000E0F1010010200000010024000127A0087
:100B500000093D002DE9F84F040070D02078C04D09
:100B6000C00749D06868C0F38100012807D06868D1
:100B7000C0F38100022809D16868C00306D528683F
:100B8000800339D560680028E7D035E06068B0F5AB
:100B9000803F0BD010B1B0F5A02F11D0286820F401
:100BA00080302860286820F4802002E0286840F423
:100BB00080302860606890B1FFF73CFE06460AE08E
:100BC000286840F480202860F0E700BFFFF732FE7D
:100BD000801B642873D828688003F7D50CE0FFF7E2
:100BE00029FE064605E000BFFFF724FE801B6428AF
:100BF000F0D828688003F7D420789A4E80074FF009
:100C000001094FF0000839D5686810F00C0F07D0C3
:100C10006868C0F38100022809D16868C00306D45F
:100C20002868800714D52069012808D110E02069C0
:100C3000B0B1C6F80090FFF7FDFD074605E00AE1F8
:100C4000FFF7F8FDC01B0228C4D828688007F7D535
:100C50002868616920F0F80040EAC10028600DE0D2
:100C6000C6F80080FFF7E6FD074604E0FFF7E2FD67
:100C7000C01B022823D828688007F7D420780007F3
:100C80002CD57948A169D9B1C0F80090FFF7D2FD01
:100C9000074604E0FFF7CEFDC01B02280FD8686AA4
:100CA0008007F7D571484FF4FA510068B0FBF1F0B6
:100CB000009000BF0098411E0091FAD20EE080E043
:100CC000C0F80080FFF7B6FD074604E0FFF7B2FD6D
:100CD000C01B022875D8686A8007F7D420784007BF
:100CE00060D5E8690027C00008D4E86940F080506A
:100CF000E861E869012700F0805000905C480168D5
:100D0000C90513D40168834641F480710160FFF77F
:100D100091FD824606E000BFFFF78CFDA0EB0A00C4
:100D200064284ED8DBF80000C005F5D5E06801283E
:100D30000AD008B1052813D0286A20F001002862E3
:100D4000286A20F0040002E0286A40F001002862CE
:100D5000E06841F2883B98B1FFF76CFD82460BE0FA
:100D6000286A40F004002862EEE700BFFFF762FD4A
:100D7000A0EB0A0159455AD8286A8007F6D50CE03D
:100D8000FFF758FD824605E0FFF754FDA0EB0A018E
:100D900059454CD8286A8007F6D41FB1E86920F07D
:100DA0008050E861E06988B36968C1F38101022974
:100DB00044D00228C6F8608004D0FFF73BFD04460B
:100DC00038E034E0FFF736FD074604E0FFF732FD78
:100DD000C01B02282BD828688001F7D4206AB0F500
:100DE000803F05D16868A16820F40030084368603E
:100DF000D4E908010843696821F474110843686064
:100E0000C6F86090FFF716FD044606E025E000BF37
:100E1000FFF710FD001B022809D828688001F7D5CC
:100E20001BE000BFFFF706FD001B022802D90320CC
:100E3000BDE8F88F28688001F4D40EE00128F7D0CF
:100E40006868226A00F48031914204D1616A00F43A
:100E50007010884201D00120EAE70020E8E7000096
:100E60000010024000004242800442421400002070
:100E70000070004070B5040009D0606A002540B1E0
:100E800025616561A56294F8510040B10CE0012034
:100E900070BD6068B0F5827FF4D0E561F2E784F858
:100EA0005050204600F040F8022084F8510020689D
:100EB000016821F040010160A088218900F482705E
:100EC00001F404410843A18901F400610843217C35
:100ED00001F002010843217D01F001010843218B4B
:100EE00001F400710843217F01F03801084394F8B0
:100EF000201001F080010843218D01F400510843C6
:100F000021680860A069042101EA10402168486056
:100F10002068C16921F40061C1616565012084F820
:100F20005100002070BD0000F0B585B00024009491
:100F30000194029403940646374D03683748022112
:100F40000322AB4240D1836943F4805383618369B8
:100F500003F480530493836943F00403836180693D
:100F6000039200F004000490A020CDE9000169463E
:100F70002B48FFF75DFB2C4D2A48802701C5102028
:100F800091C5294845F810496C61AC61EC61FFF7E7
:100F9000E7FA08B1FFF7BDF9B5646E62224D21484A
:100FA00044351438C5E90004C5E902472C616C6179
:100FB000AC612846EC61FFF7D3FA08B1FFF7A9F955
:100FC000F5646E6205B0F0BD184DAB42FAD1C3694D
:100FD00043F48043C361C36903F48043049383698A
:100FE00043F0080383618069114D00F0080004900C
:100FF0004FF43040CDE90001039269462846FFF7DF
:1010000017FB4FF48040CDE900046946284602945E
:10101000FFF70EFBD6E70000003001400010024051
:101020000008014030000240240100200038004048
:10103000000C01402DE9F84F044640680025984611
:1010400016460F464FF0040BB0F5827F01D1A06821
:1010500088B194F85000012818D0012084F850007D
:10106000FFF7E8FB814694F851004FF0000A012891
:101070000ED0022582E084F851B013460A4620467D
:10108000CDF8008000F036F9BDE8F88F0220FBE7CC
:10109000002F72D0002E70D084F851B0C4F854A044
:1010A000A763A687E687C4F830A0A4F834A0A4F804
:1010B00036A0C4F840A0C4F844A0A068B0F5004F22
:1010C00009D12068016821F04001016020680168B1
:1010D00021F48041016020680168490603D4016859
:1010E00041F040010160E068D8B139E020688168D2
:1010F000C90709D0007BA16B0870A06B401CA063DE
:10110000E08F401EE0870CE0FFF794FBA0EB0901A5
:10111000414503D3B8F1FF3F03D036E0B8F1000FEB
:1011200033D0E08F0028E1D11DE020688168C90735
:1011300009D0C068A16B0880A06B801CA063E08F01
:10114000401EE0870CE0FFF775FBA0EB090141456D
:1011500003D3B8F1FF3F03D017E0B8F1000F14D06C
:10116000E08F0028E1D14A464146204600F0A0FB2E
:1011700008B120206065606D00B10125012084F870
:10118000510084F850A028467EE70325F6E72DE9B4
:10119000F84F044690F8500000271D461646894631
:1011A00001280DD04FF0010B84F850B0FFF742FB3F
:1011B000804694F85100BA46012804D0022793E0F3
:1011C0000220BDE8F88FB9F1000F73D0002E71D066
:1011D000032084F85100C4F854A0C4F83090A686C7
:1011E000E686C4F838A0A4F83CA0A4F83EA0C4F851
:1011F00044A0C4F840A0A068B0F5004F09D1206811
:10120000016821F0400101602068016841F48041DB
:10121000016020680168490603D4016841F040017B
:101220000160E068B0F5006F606803D030B3012E54
:1012300024D041E008B1012E1CD1206B2168008828
:10124000C86006E020688168890709D5216B098894
:10125000C160206B801C2063E08E401EE08609E0A8
:10126000FFF7E8FAA0EB0800A84202D3681C01D0FF
:1012700031E07DB3E08E0028E4D120E0206B2168CE
:101280000078087306E020688168890709D5216B1A
:1012900009780173206B401C2063E08E401EE086BD
:1012A0000AE0FFF7C7FAA0EB0800A84203D3681CC6
:1012B00002D010E017E06DB1E08E0028E3D1424685
:1012C0002946204600F022FB08B120206065A06876
:1012D00018B106E0FFE7032706E02068C1688068D0
:1012E0000090606D00B1012784F851B084F850A0DF
:1012F000384666E72DE9F84F044690F8500000277D
:101300000A9E1D4692468B464FF0010901280ED0D9
:10131000012084F85000FFF78DFA804694F85100C0
:10132000616801280CD0B1F5827F07D102E002206C
:10133000BDE8F88FA16809B9042801D00227C2E0EE
:10134000BBF1000F27D0BAF1000F24D01DB394F8E1
:101350005100042802D0052084F851000020606567
:10136000C4F838A0E587A587C4F830B0E586A5861F
:101370002064606420680168490603D4016841F074
:1013800040010160E068B0F5006F606805D0E8B327
:10139000012D46D07FE0012795E008B1012D39D11C
:1013A000206B21680088C860206B801C2063E08E61
:1013B000401EE0862EE02068816889070FD5E18E07
:1013C00069B1B9F1010F0AD1216B0988C160206BA5
:1013D000801C2063E08E401EE0864FF000092068EC
:1013E0008168C9070CD0E18F51B1C068A16B08803A
:1013F000A06B801CA063E08F401EE0874FF00109C6
:10140000FFF718FAA0EB0800B04200E009E001D3B2
:10141000701C50D1E08E0028CDD1E08F0028CAD1B9
:101420003FE0206B216800780873206B401C20632C
:10143000E08E401EE0862EE02068816889070FD587
:10144000E18E69B1B9F1010F0AD1216B09780173FD
:10145000206B401C2063E08E401EE0864FF00009A8
:1014600020688168C9070CD0E18F51B1C068A16BB9
:101470000870A06B401CA063E08F401EE0874FF017
:101480000109FFF7D7F9A0EB0800B04202D3701CA6
:1014900001D010E07EB1E08E0028CDD1E08F002891
:1014A000CAD142463146204600F030FA28B1012721
:1014B0002020606507E0032705E0A06818B92068D0
:1014C000C16880680090012084F85100002084F8F1
:1014D000500038462CE710B5401EB0F1807F01D394
:1014E000012010BD4FF0E02460610F21601700F073
:1014F00009FC0020A06107202061002010BD70B50C
:10150000040004D094F83D00002510B106E001204D
:1015100070BD84F83C50204600F022F8242084F866
:101520003D002068C16821F40051C160204600F0F0
:10153000BFFA2068016921F4904101612068416986
:1015400021F02A0141612068C16841F40051C16065
:101550002564202084F83D0084F83E00002070BD02
:1015600030B585B00024009401940294039400687F
:101570001449884224D11448816941F48041816131
:10158000816901F480410491816941F00401816124
:1015900080690E4D00F0040004904FF4007000903C
:1015A000022001900320039069462846FFF740F887
:1015B0002815CDE90004694628460294FFF738F85B
:1015C00005B030BD00380140001002400008014065
:1015D0002DE9F843044690F83D001F4616460D4697
:1015E00020284CD1C5B1BEB194F83C00012846D0AA
:1015F000012084F83C004FF00008C4F8408021200E
:1016000084F83D00FFF716F9A6848146E684A068B9
:10161000B0F5805F03D004E00120BDE8F8832069C5
:1016200028B12E465FF0000584F83C800EE00026CD
:10163000FAE78021204600F097FAA0B9AEB116F87B
:10164000010B21684860E08C401EE084E08C4B4632
:101650004FF0000200970028EBD14FF040012046E8
:1016600000F082FA30B10320D7E735F8020BC0F35F
:101670000800E6E7202084F83D000020CDE70220A6
:10168000CBE7FEE70D4808B5416941F00101416132
:101690004069002200F00100009005210C20FFF7B6
:1016A0003BF90C20FFF72AF9002205210D20FFF756
:1016B00033F9BDE808400D20FFF720B900100240C3
:1016C0002DE9F04F85B00024404800940194029425
:1016D0000394816941F040018161816901F0400119
:1016E0000491816941F010018161816901F010016B
:1016F0000491816941F004018161816901F0040173
:101700000491816941F0080181618069DFF8C0803E
:1017100000F008000490002220214046FFF784F8E2
:10172000DFF8B090002258214846FFF77DF8DFF837
:10173000A8A0012210215046FFF776F8DFF89CB0F0
:10174000002220215846FFF76FF818200090244807
:10175000CDE9010469464046FEF76AFF20270226CC
:10176000012500970396CDE9015469464046FEF7EE
:101770005FFF5820CDE90005CDE90246694648469D
:10178000FEF756FF1020CDE9000569465046CDE929
:101790000245FEF74DFF00970396CDE901546946D7
:1017A0005846FEF745FF002205210920FFF7B4F84F
:1017B0000920FFF7A3F8002205210A20FFF7ACF863
:1017C0000A20FFF79BF805B0BDE8F08F001002403B
:1017D000001801400008014000100140000C0140C9
:1017E00000002110114810B50F4901604FF48271BB
:1017F00041604FF40041816000210222C0E90312E0
:1018000001224261520282610822C0E9072141623D
:1018100081620A21C162FFF72DFB002803D0BDE8D9
:101820001040FEF776BD10BD00300140740000206E
:101830000F4810B50D4901604FF4827141600021DD
:101840008160C1604FF480220161C0E90512C1616D
:101850000162416281620A21C162FFF70BFB00282D
:1018600003D0BDE81040FEF754BD10BD0038004065
:10187000CC0000200C4810B50A4901604FF4E1315A
:101880004160002181600C22C160C0E904128161C5
:10189000C161FFF734FE002803D0BDE81040FEF719
:1018A00038BD10BD00380140AC010020FEE7FEE766
:1018B000F8B5044640684FF48273984217D1A06887
:1018C0004FF48065B0F5004F01D0A8420FD12068D9
:1018D000066826F0400606606068984207D1A06856
:1018E000A84204D100920B460022012103E000929D
:1018F0000B4600228021204600F042F8002804D048
:10190000606D40F0200060650320F8BD38B50B46DF
:10191000009204460022802100F032F8002804D012
:10192000606D40F020006065032038BDF8B50446C6
:10193000080C8DF80000080A8DF8010015468DF896
:10194000021000BF00F044F9C007FBD14CF2503642
:101950003346012208490948FFF719FC33460322A0
:1019600069460648FFF713FC4FF47A732A4621466E
:101970000248FFF75FFBF8BD6D000020CC0000209F
:101980002DE9F8431E46914688460446089DFEF719
:1019900051FF401B351AFEF74DFF074625480068EA
:1019A000C0F3CB30684338E0701C37D0FEF742FFFD
:1019B000C01BA84203D215B1009860B32CE0206888
:1019C000416821F0E00141606068B0F5827F0BD191
:1019D000A068B0F5004F02D0B0F5806F04D1206848
:1019E000016821F040010160A06AB0F5005F09D1F3
:1019F0002068016821F4005101602068016841F409
:101A000000510160012084F85100002084F850004A
:101A10000320BDE8F8830025401E009020688168FF
:101A200038EA010004D000214945BDD10020F0E78B
:101A30000121F9E71400002010B5FEF701FF00F0C6
:101A400005FC012803D0BDE8104000F09BBB10BD91
:101A500030B58FB028216846FEF7E9FB14210AA8AB
:101A6000FEF7E5FB01210804CDE9001000240294F3
:101A700002250491CDE907504FF4E0100990684623
:101A8000FFF768F808B172B6FEE70F20CDE90A0546
:101A90004FF48060CDE90C4002210AA80E94FEF7B5
:101AA0006DFF002801D072B6FEE70FB030BD704761
:101AB00070B5044600680169E26821F440511143A1
:101AC00001612169A0680843616908432168CA6807
:101AD00041F20C639A430243CA6020684169A269DB
:101AE00021F44071114341611E492068884202D1AE
:101AF000FEF7EAFF01E0FEF7D7FF00EBC00101EBC4
:101B00000012606864218000B2FBF0F3B3FBF1F3D4
:101B10006FF018067343B2FBF0F5B2FBF0F605EB7D
:101B20008305322303EB0515B5FBF1F5B6FBF1F6A2
:101B300005F0F00505EB0615B2FBF0F6B2FBF0F090
:101B4000B0FBF1F06FF01802504306EB800003EB9E
:101B50000010B0FBF1F0216800F00F00284488600D
:101B600070BD0000003801402DE9F041984617464D
:101B70000E460446069D1DE0681C1BD02DB1FEF7E5
:101B800059FEA0EB0800A84214D92068C16821F4CE
:101B9000D071C1602068416921F0010141612020BC
:101BA00084F83D0084F83E00002084F83C000320C7
:101BB000BDE8F0812068006836EA000004D000200B
:101BC000B842D9D00020F3E70120F9E7FEE7000092
:101BD00008B500208DF800004CF25033012207496F
:101BE0000748FFF7D4FA4FF47A7301226946044894
:101BF000FFF720FA9DF8000008BD00006A000020F1
:101C0000CC0000203EB58DF80000000A8DF80400DD
:101C1000000A8DF8080000BFFFF7DAFFC007FBD10C
:101C200000F054F84CF25034234601220D490E487E
:101C3000FFF7ADFA2346012202A90B48FFF7A7FAE6
:101C40002346012201A90848FFF7A1FA23460122F1
:101C500069460548FFF79BFAFFF7BAFFC007FBD1BB
:101C60003EBD00006E000020CC000020F8B5044608
:101C7000080C8DF80000080A8DF8010015468DF853
:101C8000021000BFFFF7A4FFC007FBD100F01EF851
:101C90004CF25036334601220A490B48FFF777FAD7
:101CA0003346032269460848FFF771FA33462A464D
:101CB00021460548FFF76BFAFFF78AFFC007FBD103
:101CC000F8BD00006C000020CC0000204CF2503326
:101CD000012202490248FFF75ABA000069000020B9
:101CE000CC0000200FB4054B10B503A9044A02989C
:101CF00000F028F810BC5DF814FB0000711F00080C
:101D0000700000200907090E002804DB00F1E02024
:101D100080F80014704700F00F0000F1E02080F818
:101D2000141D704702E008C8121F08C1002AFAD12A
:101D300070477047002001E001C1121F002AFBD14B
:101D4000704700002DE9FF4F8BB09A460F460446BE
:101D5000002606E025280BD052460D999047641CBA
:101D6000761C20780028F5D10FB03046BDE8F08F02
:101D70000025A94601227D4900E0054314F8013FF2
:101D8000203B02FA03F00842F7D120782E2817D121
:101D900014F8010F45F004052A280ED06FF02F0229
:101DA0002078A0F1300109290AD809EB890102EB5A
:101DB000410100EB0109641CF2E757F8049B641C25
:101DC00020786C280DD004DC4C2812D06A2811D160
:101DD00004E074280DD07A280CD10AE045F40015EF
:101DE00007E0617845F48015814202D1641C05F555
:101DF0008015641C207869283ED006DC0028B3D00A
:101E000063280BD0642804D136E0732810D07528DD
:101E10005CD052460D999047761CA5E017F8040B4C
:101E20008DF8000000208DF80100E846012003E055
:101E300057F8048B4FF0FF3069074FF0000501D4CD
:101E40000AE06D1C4D450DDA8542FADB18F80510E5
:101E50000029F6D106E06D1C8542FCDB18F8051060
:101E60000029F8D12E4404E018F8010B52460D99D0
:101E700090476D1EF8D277E000200A90C5F302501B
:101E80004FF00A0B02280CD001CFC117021E71F1CE
:101E900000020CDA0023D0EB030063EB01012D22DA
:101EA00008E0FF1D27F00707F7E80201EEE72A0523
:101EB00004D52B228DF82420012203E0EA070FD05D
:101EC0002022F7E70DF12008089218E000200A9080
:101ED000C5F302504FF00A0B022803D001CF0021B6
:101EE0000022EFE7FF1D27F00707F7E80201F7E7F9
:101EF0005A460A9BFEF7A6F9303208F8012D50EA3F
:101F00000102F5D1ADEB080000F1200B680701D408
:101F10004FF00109D94502DDA9EB0B0000E00020DC
:101F20008146002506E009A85246405D0D9990477C
:101F30006D1C761C08988542F5DB04E03020524683
:101F40000D999047761CB9F10001A9F10109F5DC62
:101F500005E018F8010B52460D999047761CBBF12D
:101F60000001ABF1010BF4DC641CFAE60928010066
:101F700038B5044600904FF47A730122694605484B
:101F8000FFF726FB034800680168C9434906FBD4F4
:101F9000204638BDAC010020FEF75AFCFFF758FD83
:101FA000FFF78EFBFFF71EFCFFF76CFBFFF740FC13
:101FB000FFF760FC4FF4FA763046FEF70FFB002087
:101FC000FFF720FE294C2AA02178FFF78BFE6178CD
:101FD00027A0FFF787FEA17825A0FFF783FEE17811
:101FE00023A0FFF77FFE3046FEF7F8FA251F20A05A
:101FF0002978FFF777FE69781DA0FFF773FEA978AF
:102000001BA0FFF76FFEE97819A0FFF76BFE3046C3
:10201000FEF7E4FA04220021201FFFF727FE042226
:1020200000212046FFF782FC217811A0FFF75AFE1D
:1020300061780FA0FFF756FEA1780DA0FFF752FEC2
:10204000E1780BA0FFF74EFE297809A0FFF74AFEC2
:10205000697807A0FFF746FEA97805A0FFF742FEC2
:10206000E97803A0FFF73EFEFEE700000400002031
:102070002563000006484168096829B14168C968BC
:10208000C9684968016370474FF0FF31FAE7000003
:1020900018000020D0E9013201699A60D0E90123DB
:1020A0005A604A68824201D182684A600022026115
:1020B0000868401E08600868704742684A60936874
:1020C0008B6093685960916008610168491C0160E8
:1020D0007047000010B5FEF77DF8114910280ED3A7
:1020E00000F1E02090F8F0030A78904207D25020E7
:1020F00080F31188BFF34F8FBFF36F8FFEE709485E
:102100000068896800F4E060884207D9502080F3B5
:102110001188BFF34F8FBFF36F8FFEE710BD000034
:10212000540000200CED00E01448816B11B1012136
:1021300041627047002141628169B1FA81F1C1F1C8
:102140001F0101EB81020E4951F822306BB101EB06
:10215000820101F108034A6852684A609A4201D13B
:1021600052684A60D16801607047502080F311883E
:10217000BFF34F8FBFF36F8FFEE700001800002002
:10218000F001002010B5502080F31188BFF34F8F6D
:10219000BFF36F8F00F068F818B104494FF080501A
:1021A0000860002080F3118810BD000004ED00E0FD
:1021B00070B50E46040009D0206C78B1502080F331
:1021C0001188BFF34F8FBFF36F8FFEE7502080F36E
:1021D0001188BFF34F8FBFF36F8FFEE7206848B9B8
:1021E000606838B1502080F31188BFF34F8FBFF380
:1021F0006F8FFEE7FFF76EFF5020EFF3118580F33E
:102200001188BFF34F8FBFF36F8FA16BE06B8842D4
:1022100018D994F94500491CA163411C04D0401C05
:1022200084F8450001200EE0606A0028FAD004F12D
:10223000240000F07DF80028F4D0002EF2D0012018
:102240003060EFE7002085F3118870BD0548C16953
:1022500019B1806B18B1002070470120704702202F
:1022600070470000180000202DE9F0412E4C002797
:10227000A06B40B1206A401C2062606A00B1012757
:102280003846BDE8F0816669761C666113D16068E6
:10229000006838B1502080F31188BFF34F8FBFF32F
:1022A0006F8FFEE76068A1686160A060A06A401C53
:1022B000A062FFF7DFFE206BDFF87080864209D353
:1022C0006068006880B16068C068C56868688642F8
:1022D0000DD220632068C06A00EB800158F821000D
:1022E0000128CAD90127C8E74FF0FF30F1E7281DC0
:1022F000FFF7D0FEA86A18B105F11800FFF7CAFE73
:10230000E86A0121A26981401143A16100EB8001CB
:1023100008EB8100291DFFF7D0FEE86A2168C96A31
:102320008842CDD30127CBE718000020F001002020
:102330002DE9F041C068C468ACB104F1180007464B
:10234000FFF7A8FE154DA86B0126A0B13946144829
:10235000FFF7B3FEE06A2968C96A88421CD90120E8
:102360006E62BDE8F081502080F31188BFF34F8F7B
:10237000BFF36F8FFEE7201DFFF78CFEE16AAA69AD
:1023800006FA01F01043A86101EB81000449B43959
:1023900001EB8000211DDBE70020E2E718000020B0
:1023A000A40200200000000000000000010203045D
:1023B000060708090000000001020304DC230008EE
:1023C0000000002074000000241D000850240008B4
:1023D000740000206C060000341D00080102030395
:1023E00008080808010000001000000000000000BC
:1023F0000024F400000000000000000000000000C5
:1024000000000000000000000000000000000000CC
:1024100000000000000000000000000000000000BC
:1024200000000000000000000000000000000000AC
:1024300000000000AAAAAAAA0000000000000000F4
:1024400000000000040605010203D800000000009F
:0400000508000131BD
:00000001FF
